:020000040800F2
:1000000060150020C5010008090E00089D0A0008BF
:10001000050E0008CB020008C129000800000000FE
:100020000000000000000000000000007324000831
:100030005105000800000000712400087524000824
:10004000DF010008DF010008DF010008DF01000810
:10005000DF010008DF01000825060008DF010008B5
:10006000DF010008DF010008DF010008DF010008F0
:10007000DF010008DF010008DF010008DF010008E0
:10008000DF010008DF010008DF010008DF010008D0
:10009000DF010008DF010008DF010008DF010008C0
:1000A000DF010008DF010008DF010008DF010008B0
:1000B000DF010008DF010008DF010008DF010008A0
:1000C000DF010008DF010008DF010008DF01000890
:1000D000DF0100085D290008DF010008DF010008DA
:1000E000DF010008DF010008DF010008DF01000870
:1000F000DF010008DF010008DF010008DF01000860
:10010000DF010008DF010008DF010008DF0100084F
:10011000DF010008DF010008DF010008DF0100083F
:10012000DF010008DF01000831050008DF010008D9
:10013000DF010008DF010008DF010008DF0100081F
:10014000DF010008DF010008DF010008DF0100080F
:10015000DF010008DF010008DF010008DF010008FF
:10016000DF010008DF010008DF010008DF010008EF
:10017000DF010008DF010008DF01000800000000C7
:10018000DF010008DF010008DF010008DF010008CF
:10019000DF010008DF010008DF01000800000000A7
:1001A000DF010008DF010008DF010008DFF810D0E0
:1001B00000F05AF8004800477D380008AFF300808F
:1001C000601500200648804706480047FEE7FEE726
:1001D000FEE7FEE7FEE7FEE7FEE7FEE7FEE7FEE7F7
:1001E0007D240008AD01000810B5002200E0521C7B
:1001F000835C8C5CA34201D1002BF8D1D8B2E1B270
:10020000401A10BD2DE9F05F0546002092469B463E
:1002100088460646814640241BE02846414647461C
:10022000224600F042F853465A46C01A914110D374
:1002300011461846224600F029F82D1A67EB0108EE
:100240004F4622460120002100F020F817EB00095C
:100250004E41201EA4F10104DFDC484631462A4607
:100260004346BDE8F09F0000064C074D06E0E068FD
:1002700040F0010394E8070098471034AC42F6D3ED
:10028000FFF798FF885E0008A85E0008202A04DBBC
:10029000203A00FA02F1002070479140C2F1200399
:1002A00020FA03F3194390407047202A04DB203AD8
:1002B00021FA02F00021704721FA02F3D040C2F186
:1002C0002002914008431946704700BFFEE700B581
:1002D000022002F081FE00BD10B540210D4803F060
:1002E00064FA8023012211460A4803F071FAFFF7ED
:1002F000EEFF8021074803F058FAFFF7E8FF40219E
:10030000044803F054FAFFF7E2FF4021014803F0EC
:100310004CFA10BD0004024010B540F6014003F055
:100320007DFD4023012211460C4803F051FA402381
:1003300002220021094803F072FA40F6014003F05E
:100340006DFD802301221146044803F041FA802309
:1003500002220021014803F062FA10BD00040240AD
:1003600010B540210D4803F020FA802301221146E8
:100370000A4803F02DFAFFF7AAFF8021074803F08F
:1003800016FAFFF7A4FF4021044803F010FAFFF724
:100390009EFF4021014803F008FA10BD000402400E
:1003A00070B505460024802301220021134803F084
:1003B0000FFA1E2002F010FE002614E040210F4824
:1003C00003F0F3F9FFF783FF40210C4803F0EFF946
:1003D0006006040E8021094803F0F2F908B1601CA0
:1003E000C4B2701CC6B2082EE8DB15B9FFF7B8FF1F
:1003F00001E0FFF771FF204670BD000000040240DD
:1004000070B50446802301221146144803F0E0F938
:100410004021124803F0C9F9FFF759FF00251AE0FF
:10042000E00920B180210D4803F0C1F903E08021EB
:100430000A4803F0BAF96006040E4021074803F0A9
:10044000B6F9FFF744FF4021044803F0AEF9FFF787
:100450003EFF681CC5B2082DE2DB70BD00040240FF
:1004600010B58023012211460C4803F0B1F9802118
:100470000A4803F09CF94021084803F098F91E202F
:1004800002F0AAFD8021054803F08FF9FFF71FFF56
:100490004021024803F089F910BD00000004024029
:1004A00010B58023012211460A4803F091F940213A
:1004B000084803F07CF91E2002F08EFD80210548DB
:1004C00003F073F9FFF703FF8021024803F06FF98F
:1004D00010BD00000004024010B50024802301225A
:1004E0000021124803F074F98021104803F05FF9ED
:1004F00040210E4803F05BF9FFF7E9FE09E0601CBC
:10050000C4B2FA2C03DDFFF7CBFF012010BDFFF7CB
:10051000DEFE8021054803F053F90028EFD1402189
:10052000024803F042F90020F0E700000004024016
:1005300010B520220221054802F087FD012804D1D0
:1005400020220221014802F061FD10BD006402403A
:100550007047000010B504464FF4406003F05EFCA5
:100560004FF4406003F05AFC41F2041003F056FCD3
:100570004FF400720721294803F0E8F84FF4806235
:100580000721264803F0E2F84FF40073012202210C
:10059000224803F01DF94FF48063012202211F4815
:1005A00003F016F94FF40073022200211B4803F0F8
:1005B00036F94FF4806302220021184803F02FF926
:1005C000174803F01FFF2146154803F09DFE002148
:1005D000134803F0C2FF0021114803F0EFFF002190
:1005E0000F4803F0DBFF0E4803F07AFF08210C48A8
:1005F00003F0DCFF04210A4803F0B7FF0222114692
:10060000252003F03BFA40F20531054803F07CFF5A
:100610004FF44171024803F077FF10BD0000024023
:100620000010014010B5012003F076F8012813D125
:1006300001210A4803F0C4F8012807D180210848A5
:1006400003F0B7F807A002F031FA02E009A002F0C7
:100650002DFA012003F05AF810BD000000000240FE
:10066000000C02406B657920707265737365640DD0
:100670000A0000006B65792072656C6561736564C2
:100680000D0A00003EB50020019002900024009069
:100690008DF8000040F6034003F0C0FB4FF4006308
:1006A000002201212B4803F093F84FF4006302224B
:1006B0000021284803F0B3F8FFF72EFE4FF4006343
:1006C00000221146234803F083F8642002F07AFCEC
:1006D000042201A948F2401000F062F801A91EA00E
:1006E00002F0E4F902F02EFC1FA101A8FFF77CFD47
:1006F00000282DD1012201A948F2500000F050F845
:100700009DF804101AA002F0D1F9EF221D4948F219
:10071000500000F045F81CA002F0C8F900BF10E03E
:100720001848015D1CA002F0C1F9601C0A2190FB71
:10073000F1F201FB120010B911A002F0B7F9601C30
:10074000C4B2EF2CECDB0EA002F0B0F900203EBDED
:100750000120FCE7000C02404354502049443A4732
:100760005425730D0A0000003131353800000000B7
:1007700044656661756C74205665723A30782578E8
:100780000D0A00006C000020436F6E666967204907
:100790006E666F3A0D0A00003078253032582C0012
:1007A0002DE9F04105460F461646FFF759FE282071
:1007B000FFF726FEFFF790FE2812FFF721FEFFF756
:1007C0008BFEE8B2FFF71CFEFFF786FEFFF748FE40
:1007D0002920FFF715FEFFF77FFE00240BE0711EB6
:1007E000A14201D0012100E000210846FFF7D8FD19
:1007F0003855601CC4B2B442F1DBFFF751FEBDE8CE
:10080000F081000071B583B0002400268448007890
:10081000401C83490870084600780A2190FBF1F2D9
:1008200001FB120018B17E4800780A287DDA012207
:1008300003A948F24E10FFF7B3FF9DF80C0000F03B
:10084000800068B19DF80C0000F00F00062807DA60
:1008500000200190012201A948F24E1000F0F0F8AA
:100860009DF80C0000F00F0000285ED09DF80C00F1
:1008700000F00F000628D9DA9DF80C0000F00F01F7
:10088000FF208840C0B201906648057D9DF80400B5
:10089000C043C0B240F0C0006249087508460088F5
:1008A0000881084641894182002465E05D48007D59
:1008B0000121A140084000285CD05B4931F81400B8
:1008C000042202A9FFF76CFF564890F8240000F0BC
:1008D0000100A0B19DF808009DF8091000EB01206F
:1008E000504921F814009DF80A009DF80B1000EB08
:1008F000012081B24B480A3020F8141013E09DF813
:1009000008009DF8091000EB0120464921F8140069
:100910009DF80A009DF80B1000EB012081B24148C0
:100920000A3020F814103F4800E052E030F814007C
:1009300000281FDD3B4830F81400B0F5F07F19DACD
:1009400038480A3030F81400002813DD35480A30E2
:1009500030F81400B0F5487F0CDA32480A3030F82D
:10096000140000902F4830F81420234621462FA071
:1009700002F09CF8601CC4B2052C97DB01262948C4
:100980000088B0F5806F04DC26484089B0F5806FA0
:100990001CDD9DF80C0000F00F0001280ADD214845
:1009A00040882049088008468089488100201C49E9
:1009B00008700EE01B4800891A4908800846408AE2
:1009C0004881802003900846057502E00020144904
:1009D00008709DF80C0000F08F00802815D1114898
:1009E000007D00F0800030B10E48007D20F08000D6
:1009F0000C49087509E04FF6FF700A4908804881E4
:100A00000846007D00F0E000087505480078F028F1
:100A100002DD0A2002490870304604B070BD0000B3
:100A200028000020440000207C5E0008785B2564DC
:100A30005D3A25642C795B25645D3A25640D0A00D6
:100A40002DE9F04104460E4617464FF00008FFF727
:100A500007FD2820FFF7D4FCFFF73EFD2012FFF72B
:100A6000CFFCFFF739FDE0B2FFF7CAFCFFF734FD1A
:100A700000250BE0705DFFF7C3FCFFF72DFD8046FE
:100A8000B8F1000F00D003E0681CC5B2BD42F1DB35
:100A900000BFFFF705FD4046BDE8F08100BFFEE75F
:100AA00010B54FF4406003F0B9F901230222002190
:100AB0000D4802F08DFE41F20E1003F0AFF9032253
:100AC0001146062002F0DAFF0021084603F00CFA76
:100AD00002220021012002F0B3FD012002F00EFEEF
:100AE000012002F013FE10BD0000024010B50246C6
:100AF00000BF4FF4F0734FF4487413FB04F300206D
:100B000005E0044C54F8224024F81010401C984290
:100B1000F7D310BD200000201CB50FA001F0C6FFC8
:100B200000F074F912A001F0C1FF0020009003460C
:100B300002460146019001F005FD13A001F0B6FF49
:100B40004FF6FF710120FFF7D1FF4FF4005113481A
:100B500002F02DFE1CBD00005374617274204E54CF
:100B600033353531305F496E69740D0A000000007D
:100B7000537461727420544C495F436F6E666967A9
:100B8000506172616D0D0A004C43445F496E697497
:100B9000204F76657221200D0A000000000C0240F3
:100BA0002DE9FF4F81B0884616461F460E9CB3467E
:100BB0002046E31704EB5373DB1021464FEAE47C35
:100BC00004EB5C7C4FEAEC0CA4EBCC0CBCF1000F0A
:100BD00002D04FF0010C01E04FF0000C63442246BC
:100BE00004EBD27C4FEA6C0C03FB0CF3DBB20093FA
:100BF000A7F12000C7B2002557E00C2C07D107EB66
:100C000047002C4901EB800010F8059014E0102CEF
:100C100005D1294800EB071010F805900CE0182CBE
:100C200007D107EBC700254901EB800010F80590BC
:100C300002E005B0BDE8F08F4FF0000A2FE009F0A8
:100C4000800038B11E48038832464146019800F0C2
:100C5000CBF808E00F9830B91A480388324641466D
:100C6000019800F0C1F84FEA49604FEA1069701C22
:100C700086B2B6F5487F00DBDBE7A6EB0B00A042AF
:100C800009D15E4608F101001FFA80F8B8F5F07F3F
:100C900000DBCEE706E00AF1010000F0FF0ABAF13E
:100CA000080FCCDB00BF681CC5B200988542A4DBEE
:100CB00000BFBEE7CC450008404A0008305000089D
:100CC0001C0000201E0000202DE9FF4F82B00C46C2
:100CD00015469846DDE911A7DDE90F9604F0FF0BF4
:100CE00008EB04001FFA80F809EB05001FFA80F9F1
:100CF00016E0444502DB5C46A81985B24D4500DB91
:100D000014E0CDE9006A3B782A4621460298FFF7B5
:100D100047FF304606EBD07104EB61018CB27F1CBB
:100D200038787E2802DC38782028E2DA00BF06B066
:100D3000BDE8F08F10B540F6044003F06FF840F6C0
:100D4000034003F06BF840F6064003F067F84FF4F9
:100D5000406003F063F80823002201211E4802F0DE
:100D600037FD8023002201211C4802F031FD0823B9
:100D7000002201211A4802F02BFD2023002201212C
:100D8000184802F025FD082302220021124802F033
:100D900046FD802302220021104802F040FD082376
:100DA000022200210E4802F03AFD202302220021F7
:100DB0000C4802F034FD0821074802F0F6FC8021BF
:100DC000064802F0F2FC0821054802F0EEFC202162
:100DD000044802F0EAFC10BD00100240000C024082
:100DE000001802400000024070B5054D55F8205033
:100DF0004FF4F07606FB021625F8163070BD0000A1
:100E00002000002000BFFEE77047000010B540F64C
:100E1000044003F003F8402301221146FE4802F08B
:100E2000D7FC402302220021FB4802F0F8FC40F6E8
:100E3000044002F0F3FF042301221146F64802F0B9
:100E4000C7FC042302220021F34802F0E8FC40F62C
:100E5000044002F0E3FF102301221146EE4802F0A5
:100E6000B7FC102302220021EB4802F0D8FC40F628
:100E7000034002F0D3FF4FF4805301221146E748AC
:100E800002F0A6FC4FF4805302220021E34802F056
:100E9000C6FC40F6034002F0C1FF4FF400530122AC
:100EA0001146DE4802F094FC4FF400530222002168
:100EB000DA4802F0B4FC4FF40051D84802F075FC57
:100EC00001220421D44802F076FC01221021D248EC
:100ED00002F071FC01224021CF4802F06CFCC820D6
:100EE00002F070F801221103CC4802F064FC0A20E1
:100EF00002F068F800224FF48051C84802F05BFC11
:100F0000322002F05FF801221103C44802F053FCC2
:100F1000962002F057F84FF4704001F089FD5520FB
:100F200001F0A8FD4FF2010001F082FDAA2001F0BE
:100F3000A1FD4FF2020001F07BFD522001F09AFD6D
:100F40004FF2030001F074FD082001F093FD4FF211
:100F5000040001F06DFD012001F08CFD4FF43040E4
:100F600001F066FD0D2001F085FD4BF2010001F05E
:100F70005FFD0D2001F07EFD4BF2020001F058FDF7
:100F80000D2001F077FD4FF4364001F051FD342083
:100F900001F070FD4BF2016001F04AFD342001F0D8
:100FA00069FD4BF2026001F043FD342001F062FD67
:100FB0004FF4314001F03CFD0D2001F05BFD4BF2A0
:100FC000011001F035FD0D2001F054FD4BF202102F
:100FD00001F02EFD0D2001F04DFD4FF4374001F0E2
:100FE00027FD342001F046FD4BF2017001F020FD99
:100FF000342001F03FFD4BF2027001F019FD342066
:1010000001F038FD4FF4324001F012FD002001F0F4
:1010100031FD4BF2012001F00BFD002001F02AFD13
:101020004BF2022001F004FD002001F023FD4FF4FB
:10103000384001F0FDFC242001F01CFD4BF60100BE
:1010400001F0F6FC242001F015FD4BF6020001F042
:10105000EFFC242001F00EFD4FF43F4001F0E8FCCE
:10106000012001F007FD4FF4334001F0E1FC0F20B7
:1010700001F000FD4BF2013001F0DAFC0F2001F02D
:10108000F9FC4BF2023001F0D3FC0F2001F0F2FC2E
:101090004FF4394001F0CCFC342001F0EBFC4BF66E
:1010A000011001F0C5FC342001F0E4FC4BF6021005
:1010B00001F0BEFC342001F0DDFC4FF4354001F0BE
:1010C000B7FC082001F0D6FC4BF2015001F0B0FC57
:1010D000082001F0CFFC4BF2025001F0A9FC0820DF
:1010E00001F0C8FC4FF4424001F0A2FC032001F0E3
:1010F000C1FC4FF43A4001F09BFC242001F0BAFC03
:101100004BF6012001F094FC242001F0B3FC4BF6D7
:10111000022001F08DFC242001F0ACFC4FF43C4097
:1011200001F086FC002001F0A5FC4BF6014001F027
:101130007FFC782001F09EFC4BF6024001F078FC29
:10114000002001F097FC4FF43D4001F071FC0020BD
:1011500001F090FC4BF6015001F06AFC782001F0A0
:1011600089FC4BF6025001F063FC002001F082FC88
:101170004FF43E4001F05CFC002001F07BFC4BF69C
:10118000016001F055FC642001F074FC4FF4514003
:1011900001F04EFC002001F06DFC4DF2011001F059
:1011A00047FC332001F066FC4DF2021001F040FCD8
:1011B000002001F05FFC4DF2031001F039FC3420F7
:1011C00001F058FC4DF2041001F032FC002001F057
:1011D00051FC4DF2051001F02BFC3A2001F04AFCC5
:1011E0004DF2061001F024FC002001F043FC4DF20A
:1011F000071001F01DFC4A2001F03CFC4DF20810E4
:1012000001F016FC002001F035FC4DF2091001F050
:101210000FFC5C2004E0000000100240000C0240C3
:1012200001F028FC4DF20A1001F002FC002001F050
:1012300021FC4DF20B1001F0FBFB812001F01AFCA8
:101240004DF20C1001F0F4FB002001F013FC4DF204
:101250000D1001F0EDFBA62001F00CFC4DF20E107C
:1012600001F0E6FB002001F005FC4DF20F1001F04B
:10127000DFFBE52001F0FEFB4DF2101001F0D8FB82
:10128000012001F0F7FB4DF2111001F0D1FB13200A
:1012900001F0F0FB4DF2121001F0CAFB012001F049
:1012A000E9FB4DF2131001F0C3FB542001F0E2FB07
:1012B0004DF2141001F0BCFB012001F0DBFB4DF2FC
:1012C000151001F0B5FB822001F0D4FB4DF2161091
:1012D00001F0AEFB012001F0CDFB4DF2171001F043
:1012E000A7FBCA2001F0C6FB4DF2181001F0A0FBCD
:1012F000022001F0BFFB4DF2191001F099FB002014
:1013000001F0B8FB4DF21A1001F092FB022001F03F
:10131000B1FB4DF21B1001F08BFB012001F0AAFB89
:101320004DF21C1001F084FB022001F0A3FB4DF2F2
:101330001D1001F07DFB342001F09CFB4DF21E10CE
:1013400001F076FB022001F095FB4DF21F1001F039
:101350006FFB672001F08EFB4DF2201001F068FB5F
:10136000022001F087FB4DF2211001F061FB842087
:1013700001F080FB4DF2221001F05AFB022001F037
:1013800079FB4DF2231001F053FBA42001F072FB16
:101390004DF2241001F04CFB022001F06BFB4DF2EA
:1013A000251001F045FBB72001F064FB4DF226103B
:1013B00001F03EFB022001F05DFB4DF2271001F031
:1013C00037FBCF2001F056FB4DF2281001F030FB27
:1013D000022001F04FFB4DF2291001F029FBDE2025
:1013E00001F048FB4DF22A1001F022FB022001F02F
:1013F00041FB4DF22B1001F01BFBF22001F03AFBF8
:101400004DF22C1001F014FB022001F033FB4DF2E1
:101410002D1001F00DFBFE2001F02CFB4DF22E10E3
:1014200001F006FB032001F025FB4DF22F1001F027
:10143000FFFA102001F01EFB4DF2301001F0F8FA17
:10144000032001F017FB4DF2311001F0F1FA3320C7
:1014500001F010FB4DF2321001F0EAFA032001F026
:1014600009FB4DF2331001F0E3FA6D2001F002FBAD
:101470004FF4524001F0DCFA002001F0FBFA4DF28B
:10148000012001F0D5FA332001F0F4FA4DF20220E8
:1014900001F0CEFA002001F0EDFA4DF2032001F048
:1014A000C7FA342001F0E6FA4DF2042001F0C0FA48
:1014B000002001F0DFFA4DF2052001F0B9FA3A20E0
:1014C00001F0D8FA4DF2062001F0B2FA002001F046
:1014D000D1FA4DF2072001F0ABFA4A2001F0CAFA26
:1014E0004DF2082001F0A4FA002001F0C3FA4DF2F9
:1014F000092001F09DFA5C2001F0BCFA4DF20A20AF
:1015000001F096FA002001F0B5FA4DF20B2001F03F
:101510008FFA812001F0AEFA4DF20C2001F088FA2A
:10152000002001F0A7FA4DF20D2001F081FAA6206B
:1015300001F0A0FA4DF20E2001F07AFA002001F03D
:1015400099FA4DF20F2001F073FAE52001F092FABA
:101550004DF2102001F06CFA012001F08BFA4DF2EF
:10156000112001F065FA132001F084FA4DF21220E7
:1015700001F05EFA012001F07DFA4DF2132001F036
:1015800057FA542001F076FA4DF2142001F050FA87
:10159000012001F06FFA4DF2152001F049FA822086
:1015A00001F068FA4DF2162001F042FA012001F034
:1015B00061FA4DF2172001F03BFACA2001F05AFA05
:1015C0004DF2182001F034FA022001F053FA4DF2E6
:1015D000192001F02DFA002001F04CFA4DF21A20EA
:1015E00001F026FA022001F045FA4DF21B2001F02D
:1015F0001FFA012001F03EFA4DF21C2001F018FA0A
:10160000022001F037FA4DF21D2001F011FA3420CA
:1016100001F030FA4DF21E2001F00AFA022001F02A
:1016200029FA4DF21F2001F003FA672001F022FA97
:101630004DF2202001F0FCF9022001F01BFA4DF2DE
:10164000212001F0F5F9842001F014FA4DF2222056
:1016500001F0EEF9022001F00DFA4DF2232001F025
:10166000E7F9A42001F006FA4DF2242001F0E0F998
:10167000022001F0FFF94DF2252001F0D9F9B72041
:1016800001F0F8F94DF2262001F0D2F9022001F024
:10169000F1F94DF2272001F0CBF9CF2001F0EAF962
:1016A0004DF2282001F0C4F9022001F0E3F94DF2D7
:1016B000292001F0BDF9DE2001F0DCF94DF22A20ED
:1016C00001F0B6F9022001F0D5F94DF22B2001F01E
:1016D000AFF9F22001F0CEF94DF22C2001F0A8F97B
:1016E000022001F0C7F94DF22D2001F0A1F9FE20F2
:1016F00001F0C0F94DF22E2001F09AF9032001F01B
:10170000B9F94DF22F2001F093F9102001F0B2F950
:101710004DF2302001F08CF9032001F0ABF94DF2CD
:10172000312001F085F9332001F0A4F94DF2322087
:1017300001F07EF9032001F09DF94DF2332001F014
:1017400077F96D2001F096F94FF4534001F070F9EC
:10175000002001F08FF94DF2013001F069F93320DA
:1017600001F088F94DF2023001F062F9002001F039
:1017700081F94DF2033001F05BF9342001F07AF980
:101780004DF2043001F054F9002001F073F94DF2EC
:10179000053001F04DF93A2001F06CF94DF20630B8
:1017A00001F046F9002001F065F94DF2073001F033
:1017B0003FF94A2001F05EF94DF2083001F038F9A6
:1017C000002001F057F94DF2093001F031F95C20A9
:1017D00001F050F94DF20A3001F02AF9002001F031
:1017E00049F94DF20B3001F023F9812001F042F963
:1017F0004DF20C3001F01CF9002001F03BF94DF2E4
:101800000D3001F015F9A62001F034F94DF20E303B
:1018100001F00EF9002001F02DF94DF20F3001F02A
:1018200007F9E52001F026F94DF2103001F000F93A
:10183000012001F01FF94DF2113001F0F9F81320E9
:1018400001F018F94DF2123001F0F2F8012001F028
:1018500011F94DF2133001F0EBF8542001F00AF9C0
:101860004DF2143001F0E4F8012001F003F94DF2DB
:10187000153001F0DDF8822001F0FCF84DF2163051
:1018800001F0D6F8012001F0F5F84DF2173001F023
:10189000CFF8CA2001F0EEF84DF2183001F0C8F888
:1018A000022001F0E7F84DF2193001F0C1F80020F4
:1018B00001F0E0F84DF21A3001F0BAF8022001F020
:1018C000D9F84DF21B3001F0B3F8012001F0D2F845
:1018D0004DF21C3001F0ACF8022001F0CBF84DF2D3
:1018E0001D3001F0A5F8342001F0C4F84DF21E308F
:1018F00001F09EF8022001F0BDF84DF21F3001F01A
:1019000097F8672001F0B6F84DF2203001F090F81A
:10191000022001F0AFF84DF2213001F089F8842067
:1019200001F0A8F84DF2223001F082F8022001F017
:10193000A1F84DF2233001F07BF8A42001F09AF8D1
:101940004DF2243001F074F8022001F093F84DF2CA
:10195000253001F06DF8B72001F08CF84DF22630FB
:1019600001F066F8022001F085F84DF2273001F011
:101970005FF8CF2001F07EF84DF2283001F058F8E2
:10198000022001F077F84DF2293001F051F8DE2005
:1019900001F070F84DF22A3001F04AF8022001F00F
:1019A00069F84DF22B3001F043F8F22001F062F8B3
:1019B0004DF22C3001F03CF8022001F05BF84DF2C2
:1019C0002D3001F035F8FE2001F054F84DF22E30A4
:1019D00001F02EF8032001F04DF84DF22F3001F008
:1019E00027F8102001F046F84DF2303001F020F8D1
:1019F000032001F03FF84DF2313001F019F83320A7
:101A000001F038F84DF2323001F012F8032001F005
:101A100031F84DF2333001F00BF86D2001F02AF867
:101A20004FF4544001F004F8002001F023F84DF287
:101A3000014000F0FDFF332001F01CF84DF20240A0
:101A400000F0F6FF002001F015F84DF2034000F021
:101A5000EFFF342001F00EF84DF2044000F0E8FFF3
:101A6000002001F007F84DF2054000F0E1FF3A20B8
:101A700001F000F84DF2064000F0DAFF002000F01F
:101A8000F9FF4DF2074000F0D3FF4A2000F0F2FFCB
:101A90004DF2084000F0CCFF002000F0EBFF4DF2CB
:101AA000094000F0C5FF5C2000F0E4FF4DF20A4061
:101AB00000F0BEFF002000F0DDFF4DF20B4000F013
:101AC000B7FF812000F0D6FF4DF20C4000F0B0FFD0
:101AD000002000F0CFFF4DF20D4000F0A9FFA6203E
:101AE00000F0C8FF4DF20E4000F0A2FF002000F011
:101AF000C1FF4DF20F4000F09BFFE52000F0BAFF60
:101B00004DF2104000F094FF012000F0B3FF4DF2C1
:101B1000114000F08DFF132000F0ACFF4DF2124099
:101B200000F086FF012000F0A5FF4DF2134000F009
:101B30007FFF542000F09EFF4DF2144000F078FF2C
:101B4000012000F097FF4DF2154000F071FF822058
:101B500000F090FF4DF2164000F06AFF012000F007
:101B600089FF4DF2174000F063FFCA2000F082FFAA
:101B70004DF2184000F05CFF022000F07BFF4DF2B8
:101B8000194000F055FF002000F074FF4DF21A409C
:101B900000F04EFF022000F06DFF4DF21B4000F000
:101BA00047FF012000F066FF4DF21C4000F040FFAF
:101BB000022000F05FFF4DF21D4000F039FF34209D
:101BC00000F058FF4DF21E4000F032FF022000F0FE
:101BD00051FF4DF21F4000F02BFF672000F04AFF3D
:101BE0004DF2204000F024FF022000F043FF4DF2B0
:101BF000214000F01DFF842000F03CFF4DF2224008
:101C000000F016FF022000F035FF4DF2234000F0F7
:101C10000FFFA42000F02EFF4DF2244000F008FF3B
:101C2000022000F027FF4DF2254000F001FFB72011
:101C300000F020FF4DF2264000F0FAFE022000F0F6
:101C400019FF4DF2274000F0F3FECF2000F012FF05
:101C50004DF2284000F0ECFE022000F00BFF4DF2A8
:101C6000294000F0E5FEDE2000F004FF4DF22A409E
:101C700000F0DEFE022000F0FDFE4DF22B4000F0F1
:101C8000D7FEF22000F0F6FE4DF22C4000F0D0FE20
:101C9000022000F0EFFE4DF22D4000F0C9FEFE20C4
:101CA00000F0E8FE4DF22E4000F0C2FE032000F0EE
:101CB000E1FE4DF22F4000F0BBFE102000F0DAFEF6
:101CC0004DF2304000F0B4FE032000F0D3FE4DF2A0
:101CD000314000F0ADFE332000F0CCFE4DF232403A
:101CE00000F0A6FE032000F0C5FE4DF2334000F0E8
:101CF0009FFE6D2000F0BEFE4FF4554000F098FEB0
:101D0000002000F0B7FE4DF2015000F091FE3320AC
:101D100000F0B0FE4DF2025000F08AFE002000F00C
:101D2000A9FE4DF2035000F083FE332000F0A2FE26
:101D30004DF2045000F07CFE002000F09BFE4DF2BE
:101D4000055000F075FE3A2000F094FE4DF206506A
:101D500000F06EFE002000F08DFE4DF2075000F006
:101D600067FE4A2000F086FE4DF2085000F060FE4B
:101D7000002000F07FFE4DF2095000F059FE5C207B
:101D800000F078FE4DF20A5000F052FE002000F004
:101D900071FE4DF20B5000F04BFE812000F06AFE08
:101DA0004DF20C5000F044FE002000F063FE4DF2B6
:101DB0000D5000F03DFEA62000F05CFE4DF20E50EE
:101DC00000F036FE002000F055FE4DF20F5000F0FE
:101DD0002FFEE52000F04EFE4DF2105000F028FEE0
:101DE000012000F047FE4DF2115000F021FE1320BB
:101DF00000F040FE4DF2125000F01AFE012000F0FB
:101E000039FE4DF2135000F013FE542000F032FE64
:101E10004DF2145000F00CFE012000F02BFE4DF2AC
:101E2000155000F005FE822000F024FE4DF2165001
:101E300000F0FEFD012000F01DFE4DF2175000F0F5
:101E4000F7FDCA2000F016FE4DF2185000F0F0FD2C
:101E5000022000F00FFE4DF2195000F0E9FD0020C5
:101E600000F008FE4DF21A5000F0E2FD022000F0F2
:101E700001FE4DF21B5000F0DBFD012000F0FAFDE9
:101E80004DF21C5000F0D4FD022000F0F3FD4DF2A5
:101E90001D5000F0CDFD342000F0ECFD4DF21E5041
:101EA00000F0C6FD022000F0E5FD4DF21F5000F0ED
:101EB000BFFD672000F0DEFD4DF2205000F0B8FDC0
:101EC000022000F0D7FD4DF2215000F0B1FD84203A
:101ED00000F0D0FD4DF2225000F0AAFD022000F0EB
:101EE000C9FD4DF2235000F0A3FDA42000F0C2FD77
:101EF0004DF2245000F09CFD022000F0BBFD4DF29D
:101F0000255000F095FDB72000F0B4FD4DF22650AD
:101F100000F08EFD022000F0ADFD4DF2275000F0E4
:101F200087FDCF2000F0A6FD4DF2285000F080FD87
:101F3000022000F09FFD4DF2295000F079FDDE20D7
:101F400000F098FD4DF22A5000F072FD022000F0E2
:101F500091FD4DF22B5000F06BFDF22000F08AFD58
:101F60004DF22C5000F064FD022000F083FD4DF294
:101F70002D5000F05DFDFE2000F07CFD4DF22E5056
:101F800000F056FD032000F075FD4DF22F5000F0DB
:101F90004FFD102000F06EFD4DF2305000F048FD76
:101FA000032000F067FD4DF2315000F041FD332079
:101FB00000F060FD4DF2325000F03AFD032000F0D9
:101FC00059FD4DF2335000F033FD6D2000F052FD0D
:101FD0004FF4564000F02CFD002000F04BFD4DF278
:101FE000016000F025FD332000F044FD4DF2026059
:101FF00000F01EFD002000F03DFD4DF2036000F0FA
:1020000017FD342000F036FD4DF2046000F010FDA5
:10201000002000F02FFD4DF2056000F009FD3A2090
:1020200000F028FD4DF2066000F002FD002000F0F7
:1020300021FD4DF2076000F0FBFC4A2000F01AFD84
:102040004DF2086000F0F4FC002000F013FD4DF2AA
:10205000096000F0EDFC5C2000F00CFD4DF20A6020
:1020600000F0E6FC002000F005FD4DF20B6000F0F2
:10207000DFFC812000F0FEFC4DF20C6000F0D8FC8B
:10208000002000F0F7FC4DF20D6000F0D1FCA6201E
:1020900000F0F0FC4DF20E6000F0CAFC002000F0F1
:1020A000E9FC4DF20F6000F0C3FCE52000F0E2FC1B
:1020B0004DF2106000F0BCFC012000F0DBFC4DF2A2
:1020C000116000F0B5FC132000F0D4FC4DF212605A
:1020D00000F0AEFC012000F0CDFC4DF2136000F0EA
:1020E000A7FC542000F0C6FC4DF2146000F0A0FCE8
:1020F000012000F0BFFC4DF2156000F099FC822039
:1021000000F0B8FC4DF2166000F092FC012000F0E7
:10211000B1FC4DF2176000F08BFCCA2000F0AAFC65
:102120004DF2186000F084FC022000F0A3FC4DF298
:10213000196000F07DFC002000F09CFC4DF21A605C
:1021400000F076FC022000F095FC4DF21B6000F0E0
:102150006FFC012000F08EFC4DF21C6000F068FC6A
:10216000022000F087FC4DF21D6000F061FC34207D
:1021700000F080FC4DF21E6000F05AFC022000F0DE
:1021800079FC4DF21F6000F053FC672000F072FCF8
:102190004DF2206000F04CFC022000F06BFC4DF290
:1021A000216000F045FC842000F064FC4DF22260C8
:1021B00000F03EFC022000F05DFC4DF2236000F0D8
:1021C00037FCA42000F056FC4DF2246000F030FCF7
:1021D000022000F04FFC4DF2256000F029FCB720F2
:1021E00000F048FC4DF2266000F022FC022000F0D6
:1021F00041FC4DF2276000F01BFCCF2000F03AFCC0
:102200004DF2286000F014FC022000F033FC4DF287
:10221000296000F00DFCDE2000F02CFC4DF22A605D
:1022200000F006FC022000F025FC4DF22B6000F0CF
:10223000FFFBF22000F01EFC4DF22C6000F0F8FBDA
:10224000022000F017FC4DF22D6000F0F1FBFE20A3
:1022500000F010FC4DF22E6000F0EAFB032000F0CD
:1022600009FC4DF22F6000F0E3FB102000F002FCAF
:102270004DF2306000F0DCFB032000F0FBFB4DF280
:10228000316000F0D5FB332000F0F4FB4DF23260FA
:1022900000F0CEFB032000F0EDFB4DF2336000F0C8
:1022A000C7FB6D2000F0E6FB4FF4704000F0C0FB70
:1022B000552000F0DFFB4FF2010000F0B9FBAA202F
:1022C00000F0D8FB4FF2020000F0B2FB522000F009
:1022D000D1FB4FF2030000F0ABFB082000F0CAFB7B
:1022E0004FF2040000F0A4FB002000F0C3FB4FF409
:1022F000334000F09DFB002000F0BCFB4FF4354064
:1023000000F096FB502000F0B5FB4FF4314000F098
:102310008FFBCC2000F0AEFB4BF2011000F088FBED
:10232000002000F0A7FB4FF4364000F081FB0520B1
:1023300000F0A0FB4FF4374000F07AFB702000F073
:1023400099FB4BF2017000F073FB702000F092FBE0
:102350004FF4384000F06CFB012000F08BFB4BF693
:10236000010000F065FB032000F084FB4BF6020047
:1023700000F05EFB032000F07DFB4BF6030000F055
:1023800057FB032000F076FB4FF43C4000F050FB7D
:10239000022000F06FFB4BF6014000F049FB0020EB
:1023A00000F068FB4BF6024000F042FB002000F01A
:1023B00061FB4FF4494000F03BFBD02000F05AFB9A
:1023C0004CF6011000F034FB022000F053FB4CF6F9
:1023D000021000F02DFB502000F04CFB4CF60310D7
:1023E00000F026FB502000F045FB4CF6041000F0F6
:1023F0001FFB502000F03EFB4FF4585000F018FB3C
:10240000002000F037FB4FF4545000F011FB002087
:1024100000F030FB4FF4685000F00AFB552000F04C
:1024200029FB4FF4885000F003FB782000F0CAFD30
:102430004FF4245000F0FCFA0A2000F0C3FD4FF4E2
:10244000305000F0F5FA10BD10B5002807DA0A0781
:10245000140E054A00F00F031B1FD45403E00A07B3
:10246000130E024A135410BD18ED00E000E400E022
:102470007047704710B500F0BDFD10BD08B52D4880
:10248000006840F470002B4908602B48006840F059
:1024900001002949086028480830006840F08000A1
:1024A0002549083108600020009002E00098401C97
:1024B00000904CF2503100988842F7D31E48083003
:1024C000006840F090001C4908310860002000902E
:1024D00002E00098401C00904CF250310098884275
:1024E000F7D315480830006820F00300124908317E
:1024F000086011480068114908400F490860084603
:10250000006820F48020086000200B490831086032
:1025100000BF09480830006800200028F9D10848A9
:102520000549091D0860002003490C31086001F0CD
:10253000AFFD08BD88ED00E000380240FFFFF6FE69
:10254000103000242DE9F0439BB004460E4690461F
:102550001D46DDE922790EA801F0C4FE04A801F0B1
:1025600097FE41F21A1001F059FC4FF4406001F05F
:1025700055FC40F6014001F051FC40F6024001F0EC
:102580004DFC40F6034001F049FC40F6054001F0E7
:1025900045FC40F6064001F041FC41F658120E2180
:1025A000D34801F0D3F801220921D24801F0CEF836
:1025B0004FF470620E21CF4801F0C8F8C0220E21FE
:1025C000CD4801F0C3F808220E21CC4801F0BEF836
:1025D0004FF480620E21CA4801F0B8F84FF40C6243
:1025E0000E21C84801F0B2F84FF4A0520921C548A5
:1025F00001F0ACF841F6581300220221BC4801F06A
:10260000E7F841F6581303220021B94801F007F911
:1026100040F6017300220221B64801F0D9F840F6D5
:10262000017303220021B34801F0F9F8C02300220E
:102630000221B14801F0CCF8C02303220021AE48AA
:1026400001F0EDF8082300220221AC4801F0C0F8A7
:10265000082303220021A94801F0E1F84FF4806328
:1026600000220221A64801F0B3F84FF48063032250
:102670000021A34801F0D3F84FF4E65300220221D1
:10268000A04801F0A5F84FF4E653032200219D482D
:1026900001F0C5F80A2496264FF028080A258C2751
:1026A0004FF00F099848C06802280BD09648C068C0
:1026B000042807D09448C068082803D09248C0680E
:1026C00010282CD1904B9A685968186801F0DCFBEF
:1026D00008B900BFFEE78C48C068022806D004286D
:1026E00008D008280BD0102813D10DE0002001F0ED
:1026F000EFFB13E04FF4803001F0EAFB0EE04FF403
:10270000003001F0E5FB09E04FF4403001F0E0FB60
:1027100004E04FF4803001F0DBFB00BF0AE003224D
:102720000221C02001F0B0FB08B900BFFEE7002085
:1027300001F0CEFB7448C06800907348836842681B
:10274000016872A000F0B2F943463246214675A0F6
:102750008DE8A00200F0AAF91C2001F09FFA1C20CD
:1027600001F0AEFA08B900BFFEE7002017901890FC
:1027700019904FF080501A90601E80B2ADF83A0068
:10278000681E80B2ADF83800A019401E80B2ADF8C6
:102790003E00E819401E80B2ADF83C00A01900F2DE
:1027A000DF101190E81900F21F301090A01900F509
:1027B000F0704044401E1390E81900F548704844FA
:1027C000401E1290FF201490159016900EA801F054
:1027D000A7FCA01980B2ADF8120004F5F0703044E7
:1027E000401E80B2ADF81000E81980B2ADF81600B6
:1027F00005F548703844401E80B2ADF81400022040
:102800000690FF208DF81C008DF820008DF81F0029
:102810008DF81E0000208DF81D004FF48060099097
:1028200005200A9049484A490860084600680B900C
:1028300040F2C330ADF83200C01EADF830004FF4A6
:102840004870ADF8340004A9424801F0D5FCA01945
:1028500080B2ADF8120004F5F0703044401E80B232
:10286000ADF81000E81980B2ADF8160005F5487013
:102870003844401E80B2ADF8140002200690FF20BC
:102880008DF81C008DF820008DF81F008DF81E00BB
:1028900000208DF81D004FF48060099005200A90FB
:1028A0002D482B494860084640680B9040F2C330E1
:1028B000ADF83200C01EADF830004FF44870ADF8EE
:1028C000340004A92348803001F096FC012001F077
:1028D0000BFC204801F082FC1E48803001F085FC92
:1028E000012001F0EDFC01F011FC1BB0BDE8F0830C
:1028F000000002400004024000080240000C0240B8
:102900000014024000180240340000206C63645F31
:10291000636C6B20256420256420256420256420B9
:1029200000000000544C495F436F6E666967506158
:1029300072616D2025642025642025642025642093
:102940002564202564200D0A00000000000000C05E
:10295000200000200068014000B80BC010B51249EB
:10296000124801F0DEFD01280BD1104801F040FDB6
:10297000C1B20F4802880088401C0D4B18800D48DA
:1029800081540D49094801F0CCFD01280AD10748BE
:1029900001F02EFD00200749054A128888540120C5
:1029A0000649087010BD0000050305000010014035
:1029B0002A0000205B010020040304002C000020FA
:1029C00000BFFEE770B5044600220421174800F05E
:1029D000F2FE002526E000220421144800F0EBFE60
:1029E00004F0800028B101224021104800F0E3FEED
:1029F00004E0002240210D4800F0DDFE0022042109
:102A00000A4800F0D8FE012000F02AFF012204212C
:102A1000064800F0D0FE012000F022FF6006040E00
:102A2000681CC5B2082DD6DB70BD00000010024046
:102A300010B50446002210210D4800F0BCFE052010
:102A400000F00EFF2020FFF7BDFF2012FFF7BAFFB6
:102A50000020FFF7B7FFE0B2FFF7B4FF052000F05A
:102A6000FFFE01221021024800F0A5FE10BD00006B
:102A70000010024010B50446002210210A4800F060
:102A80009AFE052000F0ECFE4020FFF79BFF204659
:102A9000FFF798FF052000F0E3FE01221021024815
:102AA00000F089FE10BD0000001002400FB4054B7D
:102AB00010B503A9044A029800F018F810BC5DF89C
:102AC00014FB00003D3700083000002002E008C879
:102AD000121F08C1002AFAD170477047002001E098
:102AE00001C1121F002AFBD1704700002DE9FF4FE2
:102AF0008DB00F460546002606E025280BD0DDE9FF
:102B00000F1290476D1C761C28780028F5D111B063
:102B10003046BDE8F08F0024A246A1460122E949D3
:102B200000E0044315F8013F203B02FA03F008429D
:102B3000F7D128782A2810D06FF02F022878A0F13A
:102B40003001092914D80AEB8A0102EB410144F053
:102B5000020400EB010A6D1CF0E701CF5FEA000AF6
:102B600003D544F40054CAF1000A44F002046D1C79
:102B700028782E2817D115F8010F44F004042A28CC
:102B80000ED06FF02F022878A0F1300109290AD861
:102B900009EB890102EB410100EB01096D1CF2E731
:102BA00057F8049B6D1C28786C280FD006DC4C2845
:102BB00017D068280DD06A2814D104E0742810D0EA
:102BC0007A280FD10DE044F400140AE044F4801494
:102BD00001E044F440146978814202D104F5801484
:102BE0006D1C6D1C28786E281ED00CDC632830D03C
:102BF00004DC00288BD0582811D19FE0642867D0CE
:102C000069280CD164E073282DD004DC6F2872D0C1
:102C1000702804D194E075286ED078286DD0DDE955
:102C20000F129047761C4BE1C4F30250022806D0E5
:102C3000032809D0042801CF09D0066040E101CF64
:102C4000F117C0E900613BE101CF068038E1067071
:102C500036E117F8040B8DF8000000208DF8010014
:102C6000EB46012003E057F804BB4FF0FF3061074B
:102C70004FF0000102D40DE008F1010188464945FA
:102C80000FDA8045F8DB1BF808100029F4D108E0C2
:102C900008F1010188468142FADB1BF8081000297F
:102CA000F6D1DDE90F23AAEB08008146214600F0AA
:102CB00031F9304400EB080604E0DDE90F121BF89F
:102CC000010B9047B8F10108F7D221464846F2E0DF
:102CD0000A21C4F302524FF0000B0891022A04D0DB
:102CE00001CFC117032A09D00AE0FF1D27F007070B
:102CF000F7E8020108E02CE01EE01FE000B2C11777
:102D0000042A01D140B2C117021E71F1000206DA95
:102D10000023D0EB030063EB01012D2202E022052A
:102D200004D52B228DF82420012203E0E20701D0F4
:102D30002022F7E7904653E00A210BE0102109E03A
:102D400010214FF0000B44F004044FF008090891E3
:102D500003E008214FF0000B0891C4F30252022A4D
:102D600004D001CF0021032A06D006E0FF1D27F082
:102D70000707F7E8020103E080B2042A00D1C0B2DD
:102D80004FF0000822072BD52A78702A07D0DDF8EB
:102D900020C08CF0100C5CEA0B0C05D00EE0402239
:102DA0008DF82420012208E050EA010306D03023E8
:102DB0008DF824308DF8252002229046089B83F060
:102DC000080353EA0B030BD150EA010201D1620759
:102DD00006D530228DF824204FF00108A9F1010911
:102DE0002A78582A04D038A20B9208AA0A920BE03B
:102DF0003AA2F9E75B46089AFDF704FA0B9B9B5C45
:102E00000A9A521E0A92137050EA0102F2D10A98ED
:102E1000ADEB000000F1200B600702D524F48034F4
:102E200001E04FF00109D94502DDA9EB0B0000E0FC
:102E3000002000EB0B0141440890AAEB010AE003DB
:102E400006D4DDE90F232146504600F063F806441E
:102E50004FF0000908E009A911F80900DDE90F1297
:102E6000904709F10109761CC145F4DBE0030CD55C
:102E7000DDE90F232146504600F04CF8064404E0FB
:102E8000DDE90F1230209047761C0899481E089003
:102E90000029F5DC08E00A980A990078491C0A9193
:102EA000DDE90F129047761CBBF10001ABF1010B7D
:102EB000F1DC21465046DDE90F2300F019F8064405
:102EC0006D1C21E6092801003031323334353637A4
:102ED0003839616263646566000000003031323366
:102EE0003435363738394142434445460000000006
:102EF0002DE9F041044600251E461746880404D4F7
:102F000005E039462020B0476D1C641EF9D52846DF
:102F1000BDE8F0812DE9F041044600251E469046AB
:102F2000C80301D5302700E02027880404D505E038
:102F300041463846B0476D1C641EF9D52846BDE8A9
:102F4000F08100002DE9F0410024002500BF09E0D8
:102F50000F49681C085C495D40EA0120204484B2A6
:102F6000A81CC5B2EC2DF3D3E043401C84B226125A
:102F7000E7B2214607A0FFF799FD314609A0FFF708
:102F800095FD39460BA0FFF791FDBDE8F0810000EB
:102F90008C5D000863686B73756D3A307825582C2A
:102FA0000D0A000063686B73756D483A30782558D8
:102FB0002C0D0A0063686B73756D4C3A3078255898
:102FC0002C0D0A000349086000BF02490968002966
:102FD000FBD170471400002005E000BF00BF00BF18
:102FE00000BF00BF00BF011EA0F1010290B2F4D1EA
:102FF000704700000448006820B103480068401E84
:1030000001490860704700001400002010B5042931
:103010000CDA01EB41035C00C1F3400304EB8303D2
:1030200002FA03F38468234383600DE00B1FD9B2D7
:1030300001EB41035C00C1F3400304EB830302FA9C
:1030400003F3C4682343C36010BDF0B503460025F5
:1030500000260C46042979DA082A34D004DC012A37
:1030600007D0042A70D119E0102A41D0202A6BD150
:1030700053E001EB41004700C1F3400007EB80073C
:1030800002FA07F01F6800EA070601EB4100C700DB
:1030900003F12400C05900F0800556E001EB410027
:1030A0004700C1F3400007EB800702FA07F01F68F2
:1030B00000EA070601EB4100C70003F11000C05908
:1030C00000F0020541E001EB41004700C1F3400080
:1030D00007EB800702FA07F01F6800EA070601EB1A
:1030E0004100C70003F11000C05900F004052CE0B6
:1030F00001EB41004700C1F3400007EB800702FAF3
:1031000007F01F6800EA070601EB4100C70003F162
:103110001000C05900F0080517E001EB410047001E
:10312000C1F3400007EB800702FA07F01F6800EACE
:10313000070601EB4100C70003F11000C05900F081
:10314000100502E002E0FFE700BF7AE0201FC4B2F2
:10315000082A34D004DC012A07D0042A6FD119E0F0
:10316000102A41D0202A6AD153E004EB44004700E2
:10317000C4F3400007EB800702FA07F05F6800EA3B
:10318000070601EB4100C70003F12400C05900F01D
:10319000800555E004EB44004700C4F3400007EB12
:1031A000800702FA07F05F6800EA070601EB4100BA
:1031B000C70003F11000C05900F0020540E004EB25
:1031C00044004700C4F3400007EB800702FA07F011
:1031D0005F6800EA070601EB4100C70003F1100039
:1031E000C05900F004052BE004EB44004700C4F391
:1031F000400007EB800702FA07F05F6800EA070665
:1032000001EB4100C70003F11000C05900F00805B0
:1032100016E004EB44004700C4F3400007EB8007CE
:1032200002FA07F05F6800EA070601EB4100C700F9
:1032300003F11000C05900F0100501E0FFE700BFE6
:1032400000BF16B10DB10120F0BD0020FCE7000069
:1032500002460023012A03D0022A01D0032A04D106
:103260005001A0F1C040436C01E00548036803EA47
:103270000100884201D0002070470120FCE70000D7
:10328000580100A0D0E902211143426811430268AD
:1032900041EA4221014A116070470000500100A03C
:1032A00070B50568042D3AD1D0E908653543C66983
:1032B00035438669354346693543066945EA4625FF
:1032C000C6683543866845EA063546683543384E54
:1032D0003560856AAD696D1E866A7669761E45EA37
:1032E0000616856A2D696D1E46EA0526856AED6813
:1032F0006D1E46EA0536856A2D896D1E46EA05462D
:10330000856AAD886D1E46EA0556856A2D786D1E64
:1033100046EA05654FF02046C6F8485147E0244D7F
:103320002D6825F4F841D0E90265354346683543F8
:103330002943D0E908653543C66935438669354375
:1033400046693543066945EA06044FF02045C5F84D
:103350004011C5F84441D5F84851164E05EA060219
:10336000856AED686D1E2E03856AAD886D1E46EA7E
:103370000556856A2D896D1E46EA05452A43856AEC
:10338000AD696D1E866A7669761E45EA0616856AFF
:103390002D696D1E46EA0526856A2D786D1E46EA62
:1033A00005634FF02045C5F84821C5F84C3170BD84
:1033B000400100A0FF0F00FF074A126843F6FE73AA
:1033C00022EA03011A4602EA40020A434FF0204370
:1033D000C3F8542170470000540100A0F0B597B025
:1033E000064600274FF6FF744FF4606000F016FDAC
:1033F00040F6014000F012FD40F6024000F00EFDE4
:1034000040F6034000F00AFD40F6044000F006FDDF
:1034100040F6054000F002FD40F6064000F0FEFCDC
:1034200040F6074000F0FAFC0D220C217F4800F026
:103430008DF90D23012202217C4800F0C9F90D23EA
:1034400002220021794800F0EAF94CF203720C21C3
:10345000774800F07BF94CF2037301220221744893
:1034600000F0B6F94CF2037302220021704800F01C
:10347000D6F94FF683720C216E4800F067F94FF6CB
:103480008373012202216B4800F0A2F94FF6837387
:1034900002220021674800F0C2F94FF63F020C21DA
:1034A000654800F053F94FF63F03012202216248BC
:1034B00000F08EF94FF63F03022200215E4800F033
:1034C000AEF948F237120C215C4800F03FF948F29F
:1034D000371301220221594800F07AF948F23713D4
:1034E00002220021554800F09AF9042E01D110253E
:1034F00000E0082502200B9008200A900520099082
:1035000007200890022007900320069005900C9653
:103510000120159008201490102013904020129044
:1035200080001190002010904FF400600F90012057
:103530000E9040030D9005A816900CA8FFF7B0FE62
:1035400001200490039500200290019000E0641E89
:1035500020213046FFF77CFE08B1002CF7D114B9CA
:10356000002017B0F0BD01A8FFF78CFE0A20FFF77E
:1035700029FD0220049003950020029001904FF64F
:10358000FF7400E0641E20213046FFF761FE08B1A1
:10359000002CF7D10CB90020E3E701A8FFF772FE79
:1035A000032004900395E0200290002001904FF644
:1035B000FF7400E0641E20213046FFF749FE08B189
:1035C000002CF7D10CB90020CBE701A8FFF75AFE79
:1035D0004FF408770420049003950020029001978F
:1035E0004FF6FF7400E0641E20213046FFF730FEE6
:1035F00008B1002CF7D10CB90020B2E701A8FFF701
:1036000041FE40F2F920FFF7D7FE4FF6FF7400E0CD
:10361000641E20213046FFF71BFE08B1002CF7D1B5
:103620000CB900209DE701209BE700000008024044
:10363000000C02400010024000140240001802403A
:1036400010B52D4B1B6883432B4C2360231D1B6837
:103650008343241D2360231D1B688343241D236093
:10366000231D1B688343241D236011B101290ED142
:1036700005E0214B1B6803431F4C236008E01E4BF1
:103680001B1D1B6803431C4C241D236000E000BF6E
:1036900000BF32B1012A11D0022A1CD0032A27D13F
:1036A00027E0154B08331B680343134C0834236091
:1036B000231D1B688343241D23601BE00E4B08332E
:1036C0001B6883430C4C08342360231D1B68034391
:1036D000241D23600EE0084B08331B680343064C8F
:1036E00008342360231D1B680343241D236001E06D
:1036F00000BF00BF00BF10BD003C01400249096887
:103700000143014A11607047003C014001490860D3
:1037100070470000143C014001460748006800EA79
:10372000010205481438006800EA010312B10BB128
:10373000012070470020FCE7143C014070B50446AE
:103740000D46E0B200F01AFF204670BDF0B503460A
:103750001C6A5D6A00200DE00126864016403EB1DD
:1037600087000F26BE40B443860001FA06F63443B4
:10377000461CB0B20828EFD3082011E0012686408D
:1037800016405EB1A0F10806B7000F26BE40B54353
:10379000A0F10806B60001FA06F63543461CB0B2A1
:1037A0001028EBD31C625D62F0BD816270478161BD
:1037B0007047C16270470AB1816100E08162704761
:1037C00002461069084008B1012070470020FCE75C
:1037D000F0B504460D4616462168E268002019E05F
:1037E000012787401F409FB14FEA400C032707FA8B
:1037F0000CF7B943470005FA07F739434FEA400C85
:10380000032707FA0CF7BA43470006FA07F73A43CB
:10381000471CB8B21028E3D32160E260F0BDF0B5D8
:103820000C461546012C03D146681E43466002E053
:1038300046689E434660826800210DE001268E4066
:103840001E403EB14F000326BE40B2434E0005FA73
:1038500006F632434E1CB1B21029EFD38260F0BDA0
:1038600005E000BF00BF00BF00BF00BF00BF011EDA
:10387000A0F1010290B2F4D1704700008AB0002498
:1038800000F00AFC4FF4E130FCF764FEFDF752FA59
:10389000FDF706F960A0FFF709F90420FFF79EFD88
:1038A000FDF73AF95F4800895F4908805F48008961
:1038B0005F4908805D4801890120FDF717F95DA087
:1038C000012118225023CDE90032CDE902104FF436
:1038D000F07332221E210120FDF7F6F95AA00121D2
:1038E00018226E23CDE90032CDE902104FF4F073B7
:1038F00050221E210120FDF7E7F9FCF7C3FE89E005
:103900000020FCF77FFF00247EE05348017D01206A
:10391000A0400140002970D005A830F824004FF6DF
:10392000FF7188420CD14C4830F8140005A921F8E9
:10393000240049480A3030F8140001EB8401488023
:10394000454830F8140005A921F8240042480A30FF
:1039500030F8140001EB840148803F480A3030F809
:1039600014200A3830F814103CA0FFF79FF83A48AA
:103970000A3030F814200A3830F814102A48038826
:103980000120FDF731FA34480A3030F814200A38A3
:1039900030F81400401E81B2234803880120FDF74F
:1039A00023FA2D480A3030F81400401E82B22A480B
:1039B00030F814101C4803880120FDF715FA26483A
:1039C0000A3030F814200A3830F81400401C81B254
:1039D000154803880120FDF707FA1F480A3030F820
:1039E0001400401C82B21C4830F814100E480388A2
:1039F0000120FDF7F9F905E0FFE74FF6FF7005A993
:103A000021F82400601CC4B2052CFFF67EAF012013
:103A1000FFF7D8FA74E700007374617274210D0A1D
:103A200000000000000000201C0000200A00002010
:103A30001E00002068747470733A2F2F6C636B66DD
:103A4000622E636F6D000000746F7563682074658B
:103A500073742E2E2E2E00004400002074705F64BC
:103A600065762E785B745D3A25642074705F6465BA
:103A7000762E795B745D3A25640D0A002DE9F041DC
:103A800003460D46164600240027A0462A48006833
:103A900000F4E060B0F5E06F03D100BF4FF0040820
:103AA00030E02548006800F4E060B0F5C06F03D155
:103AB00001274FF0030825E01F48006800F4E0608C
:103AC000B0F5A06F02D10227B8461BE01A48006883
:103AD00000F4E060B0F5806F03D103274FF00108D8
:103AE00010E01548006800F4E060B0F5407F03D1B5
:103AF00004274FF0000805E04FF4A06000F020F824
:103B00000227B846C7F1040005FA00F4C8F1040121
:103B10000F20C8403040044324010848C45403F037
:103B20001F01012088405911890001F1E021C1F8ED
:103B30000001BDE8F08100000CED00E000E400E0D1
:103B400002490143024A1160704700000000FA0573
:103B50000CED00E02DE9F04F8CB0064600200A90F5
:103B60003EA090E8004CC068CDE905BECDF810A09D
:103B700007900FF2EC0ADAE9000ACDE9020A0FF227
:103B8000E00ADAE9000ACDE9000A38480068C0F323
:103B900081000B900B9820B1012804D0022828D175
:103BA00003E0334927E0334925E03048001F00682F
:103BB00000F03F072D48001F0068C0F3881C2B4809
:103BC000001F0068C0F30140401C4FEA400927482D
:103BD000001F006800F48008B8F5800F01D1254B64
:103BE00000E0234BB3FBF7F000FB0CF0B0FBF9F166
:103BF00001E01F4900BF00BF1C480068C0F3031468
:103C000004A8055D21FA05F218480068C0F3822473
:103C100002A8055D22FA05F0099014480068C0F377
:103C200042341DF8045022FA05F0089036B1012EF6
:103C300006D0022E06D0032E0AD106E00A9108E033
:103C40000A9206E009980A9003E008980A9000E0BA
:103C500000BF00BF0A980CB0BDE8F08F0000000064
:103C600000000000010203040607080908380240AA
:103C70000024F40040787D010146074A02EB9110D0
:103C8000D0F8000801F01F0301229A40104008B14B
:103C9000012070470020FCE700300240074A02EB99
:103CA0009011D1F8001800F01F0301229A4011432F
:103CB000024B03EB9012C2F800187047003002402C
:103CC000F0B506460024002700251C2E7DD007DC19
:103CD000B6B3102E10D0182E67D01A2E76D176E0FB
:103CE000B6F5E05F19D0B6F5E85F4CD0A6F54050C8
:103CF00010380028F2D134E004E01120FFF7BCFFB7
:103D00000546641C1DB94FF6FF708442F5D11120A1
:103D1000FFF7B2FF00B101277AE005E041F601406C
:103D2000FFF7AAFF0546641C1DB96FF0704084427E
:103D3000F4D141F60140FFF79FFF00B1012767E092
:103D4000FFE704E00120FFF797FF0546641C15B963
:103D5000B4F5A06FF6D10120FFF78EFF00B1012767
:103D600056E005E043F21100FFF786FF0546641CAC
:103D700015B929488442F5D143F21100FFF77CFFC1
:103D800000B1012744E005E041F60150FFF774FF60
:103D90000546641C15B920488442F5D141F601500E
:103DA000FFF76AFF00B1012732E004E01920FFF7B6
:103DB00063FF0546641C15B917488442F6D11920E3
:103DC000FFF75AFF00B1012722E010E01FE004E0F6
:103DD0001B20FFF751FF0546641C15B90E488442AD
:103DE000F6D11B20FFF748FF00B1012710E004E0E7
:103DF0001D20FFF741FF0546641C15B906488442A3
:103E0000F6D11D20FFF738FF00B1012700E000BF09
:103E100000BF3846F0BD0000FFFF0F00074A02EB6D
:103E20009011D1F8001800F01F0301229A401143AD
:103E3000024B03EB9012C2F80018704700300240AA
:103E4000074A02EB9011D1F8001800F01F0301227D
:103E50009A409143024B03EB9012C2F8001870474E
:103E600000300240074A02EB9011D1F8001800F030
:103E70001F0301229A401143024B03EB9012C2F838
:103E8000001870470030024010B50346322B19D39A
:103E9000B3F5FA7F16D8022905D0042903D00629E4
:103EA00001D008290ED1022A0CD3072A0AD898017A
:103EB0000124C4EB510440EA044040EA0270034C80
:103EC000206001E0002010BD0120FCE7883802409E
:103ED000044A116821F4403141EA0002014B1A60A2
:103EE000704700008C38024070B504460B46CD1771
:103EF00001EB9575AD10A1EB8505AE000F25B54022
:103F0000E843CD1701EB9575AD10A1EB8505AD002C
:103F100004FA05F2CD1701EB9575AD1035B1012D01
:103F20000ED0022D18D0032D2ED121E0184B1B6886
:103F30000340174D2B602B461B6813432B6024E076
:103F4000134B1B1D1B680340114D2D1D2B602B4671
:103F50001B6813432B6018E00D4B08331B680340AC
:103F60000B4D08352B602B461B6813432B600CE070
:103F7000074B0C331B680340054D0C352B602B465B
:103F80001B6813432B6000E000BF00BF70BD000042
:103F900008380140002000213A4A126842F4803279
:103FA000384B1A6000BF401C364A126802F40031D8
:103FB00019B94FF6FF729042F5D1324A126802F4F5
:103FC00000320AB900BFFEE72E4A4032126842F0C2
:103FD00080522C4B40331A602B4A126842F4404204
:103FE000294B1A60274A08321268264B08331A6098
:103FF0001A46126842F400421A601A46126842F4E5
:10400000A0521A60214A1B1F1A601A1F126842F040
:1040100080721B1F1A6000BF1A4A126802F00072F9
:10402000002AF9D0184A126842F48032164B1A60FE
:1040300000BF154A526802F48032002AF9D0124AB1
:10404000126842F40032104B1A6000BF0E4A5268E8
:1040500002F40032002AF9D00A4A0832126822F02B
:104060000302084B08331A601A46126842F0020233
:104070001A6000BF034A0832126802F00802002AE0
:10408000F8D07047003802400070004019644009C1
:1040900010B5FFF77FFF10BD10B5124800684FF450
:1040A0007A71B0FBF1F4601EB0F1807F01D3012082
:1040B0000FE0601E4FF0E02148610F214FF0FF300C
:1040C000FEF7C2F900204FF0E02188610720086167
:1040D000002008B100BFFEE70021481EFEF7B4F93A
:1040E00010BD000018000020012806D1064909680B
:1040F00041F48031044A116005E00349096821F464
:104100008031014A11607047186801400348006817
:1041100040F0010001490860704700001868014044
:104120002D49096801F0F0212B4A1160018842886D
:1041300041EA0241284A1160111D096801F0F0218D
:10414000121D11608188C28841EA0241224A121D73
:104150001160111D096801F0F021121D11608289A2
:10416000816841EA02411C4A08321160111D096848
:1041700001F0F021121D1160828A016941EA0241B9
:10418000154A0C32116014492431096801F07F414D
:10419000114A24321160D0E9072141EA0221028B41
:1041A00041EA02410C4A243211600B49103109687E
:1041B00021F07041084A10321160D0E90912114310
:1041C000C26A1143026B1143034A10321268114351
:1041D000014A10321160704708680140D0F884101D
:1041E00021F00101C0F884107047D0F8841041F02C
:1041F0000101C0F88410704750F8882F02F0F022B7
:1042000002604A880B8842EA03420260426802F078
:10421000F0224260CA888B8842EA03424260C26848
:1042200022F00702C2608A68C260026922F0FF02BF
:1042300002610A7B02614269002242610A7CCB7BF7
:1042400042EA03228B7B42EA03424B7B42EA03624F
:104250004261826940F207739A438261D1E9053273
:104260001A438261426A00224262CA694262826AD9
:1042700002F0C02282624A8C0B8C42EA03428262C4
:10428000C26A6FF30A02C2628A8CC26288387047BF
:104290000021018041808180C1808160FF21017304
:1042A000002141738173C17301744FF4C061416196
:1042B000072181610021C1610184418481847047AB
:1042C00030B90749096841F00201054A116005E06B
:1042D0000349096841F00101014A1160704700007B
:1042E000246801400021018041808180C18081607B
:1042F000C160016141618161C161016241628162AC
:10430000C1620163704700002DE9F04704460D4685
:104310000027B846B94600263349601A8C4235D08A
:104320000CDC32482044E8B1B0F5806F1FD0B0F506
:10433000006F21D0B0F5406F32D122E0B0F5806F30
:1043400029D0B0F5184F03D0B0F51C4F28D104E0A8
:104350000320FFF7FFFB074623E00320FFF7FAFBEC
:1043600007461EE00220FFF7F5FB074619E0022092
:10437000FFF7F0FB074614E00220FFF7EBFB0746D0
:104380000FE00220FFF7E6FB07460AE00220FFF7F6
:10439000E1FB074605E00220FFF7DCFB074600E0F3
:1043A00000BF00BFE06800F4004070B1780000EB8F
:1043B0005500B0FBF5F64FF6F07006EA0008C6F3BC
:1043C000420948EA0900A0600CE007EB5500B0FB89
:1043D000F5F64FF6F07006EA000806F00F0948EA15
:1043E0000900A060BDE8F0870078004000BCFFBF76
:1043F00001464868C0F308007047C1F308024260F4
:104400007047000010B504463349601A8C424DD005
:104410000CDC32482044E0B1B0F5806F22D0B0F51A
:10442000006F31D0B0F5406F52D136E0B0F5806FFB
:1044300045D0B0F5184F03D0B0F51C4F48D11AE065
:1044400040F60410FFF70EFD40F60410FFF7F8FCED
:104450003FE040F61100FFF705FD40F61100FFF7C1
:10446000EFFC36E040F61200FFF7FCFC40F61200CD
:10447000FFF7E6FC2DE040F60510FFF7F3FC40F6F1
:104480000510FFF7DDFC24E040F61300FFF7EAFC1F
:1044900040F61300FFF7D4FC1BE040F61400FFF7D2
:1044A000E1FC40F61400FFF7CBFC12E040F61E00E2
:1044B000FFF7D8FC40F61E00FFF7C2FC09E040F60B
:1044C0001F00FFF7CFFC40F61F00FFF7B9FC00E02C
:1044D00000BF00BF10BD00000078004000BCFFBF5F
:1044E000C16841F40051C160704710B5024602EB4B
:1044F0009110006801F01F040123A340184008B187
:10450000012010BD0020FCE710B500EB91121268ED
:1045100001F01F040123A3401A4300EB91131A601A
:1045200010BD70B5024600230024C1F38910105855
:1045300001F01F060125B54000EA050302EB91508A
:104540000068C1F304460125B54000EA050414B132
:104550000BB1012070BD0020FCE7C26822F4C062EC
:10456000C260C2680A43C26070470A460021C1683F
:1045700021F004011143C1607047000010B50446EA
:1045800021460548FFF739FF00BF07210248FFF722
:10459000ACFF0028F9D010BD00100140026922F4E0
:1045A0004052026102690A43026170470A460021D3
:1045B000C16821F008011143C1607047C26822F44C
:1045C0008052C260C2680A43C260704700000000A7
:1045D0000000000000000000000000003F4000005C
:1045E00000000000000030004000300040000000EB
:1045F00009000BC03D000BC03D00090018C024405D
:104600007FE0224031800000180024C01B000D8094
:104610003240018003801C4027401C80074000403E
:10462000100060000000000000000000000000001A
:1046300000001F80204040200000402020401F80BC
:1046400000000000090006001F80060009000000AD
:10465000040004003F80040004000000001000601B
:10466000000000000000000004000400040004003A
:1046700004000000000000400000000000000000F6
:10468000002001C006003800400000001F802040CC
:10469000204020401F800000000010403FC000402C
:1046A0000000000018C021402240244018400000B3
:1046B00010802040244024401B80000002000D0098
:1046C00011003FC0014000003C80244024402440B1
:1046D000238000001F8024402440344003800000D9
:1046E0003000200027C03800200000001B8024403C
:1046F000244024401B8000001C0022C02240224095
:104700001F800000000000000840000000000000C2
:104710000000000004600000000000000000040031
:104720000A0011002080404009000900090009002A
:104730000900000000004040208011000A00040031
:104740001800200023402400180000001F80204093
:10475000274029401F400000004007C039000F00DB
:1047600001C0004020403FC0244024401B80000086
:104770001F802040204020403080000020403FC06B
:10478000204020401F80000020403FC024402E4099
:1047900030C0000020403FC024402E003000000008
:1047A0000F001080204022403380020020403FC094
:1047B000040004003FC02040204020403FC0204073
:1047C000204000000060202020203FC0200020006A
:1047D00020403FC024400B0030C0204020403FC05C
:1047E00020400040004000C03FC03C0003C03C00EF
:1047F0003FC0000020403FC00C4023003FC02000CD
:104800001F802040204020401F80000020403FC0EB
:1048100024402400180000001F802140214020E097
:104820001FA0000020403FC02440260019C00040C7
:1048300018C0244024402240318000003000204035
:104840003FC020403000000020003F80004000407A
:104850003F80200020003E0001C0070038002000FB
:10486000380007C03C0007C038000000204039C0B5
:10487000060039C0204000002000384007C0384002
:1048800020000000304021C02640384020C00000F9
:10489000000000007FE04020402000000000700089
:1048A0000C000380004000000000402040207FE01A
:1048B0000000000000002000400020000000000078
:1048C0000010001000100010001000100000000088
:1048D000400000000000000000000280054005408C
:1048E00003C0004020003FC004400440038000009B
:1048F00000000380044004400640000000000380E4
:10490000044024403FC000400000038005400540B3
:1049100003400000000004401FC024402440200049
:10492000000002E0055005500650042020403FC022
:104930000440040003C000400000044027C00040C1
:104940000000000000100010041027E0000000002C
:1049500020403FC00140070004C0044020402040E8
:104960003FC000400040000007C0040007C0040032
:1049700003C00000044007C00440040003C000401E
:10498000000003800440044003800000041007F08E
:1049900004500440038000000000038004400450E1
:1049A00007F00010044007C00240040004000000AB
:1049B000000006400540054004C00000000004005F
:1049C0001F800440004000000400078000400440B5
:1049D00007C000400400070004C001800600040076
:1049E000060001C0070001C006000000044006C028
:1049F000010006C0044000000410071004E001801C
:104A0000060004000000044005C006400440000009
:104A10000000000004007BE04020000000000000D7
:104A20000000FFF000000000000040207BE00400D8
:104A300000000000400080004000200020004000F6
:104A40000000000000000000000000000000000066
:104A50000000000000001FCC000C0000000000005F
:104A60000000080030006000080030006000000016
:104A7000022003FC1E20022003FC1E200220000056
:104A800000000E1811043FFF10840C780000000095
:104A90000F0010840F3800C00778188400780000D9
:104AA00000780F8410C411240E9800E400840008DC
:104AB0000800680070000000000000000000000016
:104AC00000000000000007E0181820044002000069
:104AD000000040022004181807E000000000000059
:104AE0000240024001800FF00180024002400000BD
:104AF0000080008000800FF80080008000800000AF
:104B00000001000D000E0000000000000000000089
:104B10000000008000800080008000800080008015
:104B20000000000C000C000000000000000000006D
:104B30000000000600180060018006001800200038
:104B4000000007F0080810041004080807F000002F
:104B50000000080408041FFC00040004000000001A
:104B600000000E0C10141024104411840E0C0000D0
:104B700000000C1810041104110412880C700000BD
:104B8000000000E00320042408241FFC002400008F
:104B900000001F9810841104110410881070000088
:104BA000000007F008881104110418880070000044
:104BB00000001C00100010FC13001C00100000007E
:104BC00000000E3811441084108411440E38000087
:104BD00000000700088C10441044088807F000000B
:104BE000000000000000030C030C000000000000A7
:104BF00000000000000101060000000000000000AD
:104C00000000008001400220041008081004000089
:104C100002200220022002200220022002200000A6
:104C20000000100408080410022001400080000069
:104C300000000E001200100C106C10800F0000001D
:104C400003E00C1813E4142417C4082807D000004C
:104C50000004003C03C41C40074000E4001C0004A6
:104C600010041FFC1104110411040E8800700000D0
:104C700003E00C1810041004100410081C100000AD
:104C800010041FFC100410041004080807F00000B2
:104C900010041FFC1104110417C4100408180000AC
:104CA00010041FFC1104110017C0100008000000C0
:104CB00003E00C181004100410441C78004000009D
:104CC00010041FFC10840080008010841FFC10045E
:104CD0000000100410041FFC100410040000000069
:104CE00000030001100110011FFE10001000000061
:104CF00010041FFC110403801464181C100400002D
:104D000010041FFC1004000400040004000C000048
:104D100010041FFC1F0000FC1F001FFC10040000FB
:104D200010041FFC0C04030000E010181FFC10000E
:104D300007F00808100410041004080807F0000029
:104D400010041FFC10841080108010800F000000E1
:104D500007F0081810241024101C080A07F200009D
:104D600010041FFC1104110011C011300E0C0004BE
:104D700000000E1C11041084108410441C38000024
:104D80001800100010041FFC100410001800000090
:104D900010001FF810040004000410041FF8100095
:104DA00010001E0011E0001C007013801C00100099
:104DB0001FC0103C00E01F0000E0103C1FC00000BE
:104DC0001004180C163401C001C01634180C10045D
:104DD00010001C00130400FC13041C001000000051
:104DE0000804101C1064108413041C041018000024
:104DF0000000000000007FFE400240024002000070
:104E0000000030000C0003800060001C0003000064
:104E100000004002400240027FFE0000000000004F
:104E20000000000020004000400040002000000082
:104E3000000100010001000100010001000100016A
:104E400000004000400020000000000000000000C2
:104E500000000098012401440144014400FC0004C6
:104E600010001FFC0088010401040088007000008D
:104E700000000070008801040104010400880000A3
:104E80000000007000880104010411081FFC0004E8
:104E9000000000F8014401440144014400C800003E
:104EA0000000010401040FFC11041104110018009A
:104EB000000000D601290129012901C901060000CD
:104EC00010041FFC008401000100010400FC000428
:104ED00000000104190419FC000400040000000093
:104EE0000000000300010101190119FE000000008B
:104EF00010041FFC0024004001B4010C0104000058
:104F00000000100410041FFC000400040000000056
:104F1000010401FC0104010001FC0104010000FC8A
:104F2000010401FC008401000100010400FC0004F4
:104F3000000000F8010401040104010400F800006D
:104F4000010101FF008501040104008800700000D8
:104F500000000070008801040104010501FF000148
:104F60000104010401FC008401040100018000002F
:104F7000000000CC01240124012401240198000038
:104F800000000100010007F8010401040000000016
:104F9000010001F8000400040004010801FC000401
:104FA000010001800170000C00100160018001000F
:104FB00001F0010C003001C00030010C01F00100D3
:104FC00000000104018C00740170018C01040000D8
:104FD000010101810171000E0018016001800100D2
:104FE00000000184010C013401440184010C000023
:104FF000000000000000000001003EFC40024002F2
:105000000000000000000000FFFF000000000000A2
:105010000000400240023EFC0100000000000000D1
:105020000000600080008000400040002000200060
:105030000000000000000000000000000000000070
:105040000000000000000000000000000000000060
:105050000000000000000000000000000000000050
:105060000000000F80380FFE380F8038000000006D
:10507000000000000000000000000000000001002F
:10508000000600000C00003800003100000600009F
:105090000C0000380000300000000000000000009C
:1050A00061800067F807F98000618000618000611D
:1050B000800061800067F807F980006180000000CF
:1050C00000000000000001C0E003E0F0063008042A
:1050D00018081FFFFE040E080787F00381E0000098
:1050E0000000000001F000060C00040408060C702B
:1050F00001F9C0000E00003BE000EC1807080804AE
:105100000C180003E00000000001E00007F003F8C5
:1051100018041C0804170807E1D003C0E00023B0FE
:10512000003C080020080000100000000000000102
:1051300000003100003200001C00000000000000F0
:10514000000000000000000000000000000000005F
:10515000000000000000000000000000000000004F
:105160007F0001FFC00780F00C0018100004200031
:10517000020000000000002000021000040C0018D3
:105180000780F001FFC0007F000000000000000069
:105190000000000000000000000000004200006667
:1051A00000006600003C0000180003FFC00018006B
:1051B000003C0000660000660000420000000000A5
:1051C000080000080000080000080000080001FFB7
:1051D000C0000800000800000800000800000800E7
:1051E00000000000000100003100003200001C003F
:1051F00000000000000000000000000000000000AF
:105200000000000000000000080000080000080086
:105210000008000008000008000008000008000066
:10522000080000080000000000000000000000006E
:1052300038000038000038000000000000000000C6
:10524000000000000000000000000000000000005E
:10525000000600001C000070000180000E000038F5
:105260000000C0000700001C00003000000000002B
:10527000000000007F8001FFE0038070060018043A
:10528000000804000806001803807001FFE0007F9A
:10529000800000000000000000000100080100087C
:1052A00001000803FFF807FFF800000800000800ED
:1052B000000800000000000000000001C03802C02B
:1052C00058040098040118040218040418061C1855
:1052D00003F81801E0F800000000000000000001E1
:1052E000C0E003C0F0040008040808040808061819
:1052F0000803F41801E7F00001E0000000000000DE
:10530000000000000300000D00001100006100001B
:10531000810803010807FFF80FFFF80001080001EA
:10532000080000000000000000E007FCD0060808AC
:10533000061008061008061008061838060FF006B2
:1053400007C0000000000000000000003F8001FFD7
:10535000E003843002081804100804100804100840
:10536000071810030FF00007C00000000000000045
:10537000000003C0000700000600000600F8060752
:10538000F806180006E00007000006000000000014
:1053900000000001E1E003F7F006341004180804EF
:1053A0001808040C08040C0806161803F3F001C1D1
:1053B000E000000000000000F80003FC30030638A5
:1053C0000402080402080402080404100308F0019F
:1053D000FFC0007F0000000000000000000000008F
:1053E00000000000000000007038007038007038C5
:1053F00000000000000000000000000000000000AD
:10540000000000000000000000000000301A003022
:105410001C00000000000000000000000000000070
:10542000000000000000000800001400002200003E
:1054300041000080800100400200200400100800AC
:1054400008000000000000002100002100002100F1
:1054500000210000210000210000210000210000A7
:1054600021000021000000000000000000000800F2
:10547000080400100200200100400080800041006C
:1054800000220000140000080000000000000003DB
:10549000C00004C000040000080038080F380808E5
:1054A000380810000C300007E00003C000000000C6
:1054B000000000003F8000FFE0038070020F100634
:1054C000708804C088048308047F8802C0900301A8
:1054D0002000FE400000080000180001F8003E080F
:1054E00001C20007020007E20000FE00001FC80022
:1054F00001F800003800000804000807FFF807FF63
:10550000F80408080408080408080408080618082D
:1055100003F41801E7F00001E000000000000000C3
:105520003F8001FFE00380700200180400080400BF
:10553000080400080400100600200780C0000000D6
:1055400004000807FFF807FFF80400080400080437
:10555000000804001802001003807001FFE0007FC3
:105560008000000004000807FFF807FFF80408089F
:10557000040808040808040808043E080400080693
:10558000001801006000000004000807FFF807FF92
:10559000F8040808040800040800040800043E0099
:1055A000060000060000018000000000000000006E
:1055B0003F8001FFE0038070060018040008040229
:1055C000080402080203F00783F000020000020052
:1055D00004000807FFF807FFF804080800080000A7
:1055E000080000080000080004080807FFF807FF8B
:1055F000F80400080000000000000400080400088F
:1056000004000807FFF807FFF80400080400080476
:10561000000800000000000000000000000600007C
:105620000700000104000104000104000307FFFE5D
:1056300007FFFC0400000400000400000400080749
:10564000FFF807FFF8040C08001800003E0004C72C
:10565000800503C80600F80400380400180000089C
:1056600004000807FFF807FFF8040008000008001E
:1056700000080000080000080000080000180000F2
:105680006000000004000807FFF807800807FC001E
:10569000007FC00003F80007C000780007800807FB
:1056A000FFF807FFF804000804000807FFF80700E8
:1056B0000803C00000E000003800001E00000700E2
:1056C0000001C00400F007FFF80400000000000023
:1056D0007F8001FFE00380700600180400080400CA
:1056E0000806001803003001FFE0007F8000000082
:1056F00004000807FFF807FFF80404080404000486
:105700000400040400040400060C0003F80001F087
:1057100000000000000000007F8001FFE0038070B7
:105720000600880400880400C806003C03003E010F
:10573000FFE6007F8400000004000807FFF807FF71
:10574000F8040808040800040C00040F00040BC04F
:105750000610F003F03801E0080000080000000126
:10576000E0F803F030063010041808041808040CA0
:1057700008040C080206180207F00781E000000088
:105780000180000600000400000400000400080777
:10579000FFF807FFF80400080400000400000600FA
:1057A0000001800004000007FFE007FFF00400187C
:1057B00000000800000800000800000800000804BD
:1057C000001007FFE004000004000006000007E0EE
:1057D0000007FE00041FE00001F80000380001E0AF
:1057E000043E0007C000060000040000040000079B
:1057F000E00007FFC0041FF80007C007F80007FF1C
:1058000080043FF80007C004F8000700000400000F
:1058100000000004000806001807C07805F1C80061
:105820003E00001F800463E80780F80600180400AB
:105830000800000004000006000007800007E008E0
:10584000047C08001FF80007F800180804E00807A7
:10585000000006000004000000000001000806002F
:10586000380400F80403E8040F08047C0805F00875
:1058700007C00807001804006000000000000000D6
:1058800000000000000000000000003FFFFE2000BC
:10589000022000022000022000022000020000007E
:1058A00000000000000008000007000000C0000029
:1058B00038000006000001C000003000000E0000AB
:1058C0000100000000000000000020000220000293
:1058D0002000022000022000023FFFFE0000000026
:1058E00000000000000000000000000000000000B8
:1058F0000008000010000030000020000030000010
:10590000100000080000000000000000000001007E
:105910000001000001000001000001000001000082
:105920000100000100000100000100000100000171
:105930000000000000000000002000002000001017
:105940000000100000000000000000000000000047
:10595000000000000000000000F00019F8001B1813
:10596000002208002608002408002410003FF80048
:105970001FF800000800001800000004000007FFE6
:10598000F80FFFF000181800100800200800200889
:10599000003018001FF0000FC000000000000000E1
:1059A00007C0001FF0001830002008002008002069
:1059B00008003C08001C100000600000000000000F
:1059C0000000000007C0001FF00038180020080089
:1059D000200800200804101007FFF80FFFF0000057
:1059E000100000000000000000000007C0001FF0D1
:1059F000001230002218002208002208003208009D
:105A00001E10000E200000000000000020000020FA
:105A10000800200801FFF803FFF80620080420080A
:105A20000420080720000300000000000000000020
:105A3000000E000E6E001FF30031B10020B10020F7
:105A4000B1003191001F13002E1E00200E00300007
:105A500000000004000807FFF80FFFF8001008001E
:105A60002000002000002008003FF8001FF8000080
:105A700008000000000000000000002008002008CE
:105A8000002008063FF8063FF80000080000080064
:105A900000080000000000000000000000000000FE
:105AA00003000003002001002001002003063FFE48
:105AB000063FFC00000000000000000000000004A1
:105AC000000807FFF80FFFF8000188000300002F0F
:105AD000C00038F80020380020080000080000004E
