:020000040800F2
:10000000E8250020C5010008090E00089D0A000827
:10001000050E0008CB020008C129000800000000FE
:100020000000000000000000000000007324000831
:100030005105000800000000712400087524000824
:10004000DF010008DF010008DF010008DF01000810
:10005000DF010008DF01000825060008DF010008B5
:10006000DF010008DF010008DF010008DF010008F0
:10007000DF010008DF010008DF010008DF010008E0
:10008000DF010008DF010008DF010008DF010008D0
:10009000DF010008DF010008DF010008DF010008C0
:1000A000DF010008DF010008DF010008DF010008B0
:1000B000DF010008DF010008DF010008DF010008A0
:1000C000DF010008DF010008DF010008DF01000890
:1000D000DF0100085D290008DF010008DF010008DA
:1000E000DF010008DF010008DF010008DF01000870
:1000F000DF010008DF010008DF010008DF01000860
:10010000DF010008DF010008DF010008DF0100084F
:10011000DF010008DF010008DF010008DF0100083F
:10012000DF010008DF01000831050008DF010008D9
:10013000DF010008DF010008DF010008DF0100081F
:10014000DF010008DF010008DF010008DF0100080F
:10015000DF010008DF010008DF010008DF010008FF
:10016000DF010008DF010008DF010008DF010008EF
:10017000DF010008DF010008DF01000800000000C7
:10018000DF010008DF010008DF010008DF010008CF
:10019000DF010008DF010008DF01000800000000A7
:1001A000DF010008DF010008DF010008DFF810D0E0
:1001B00000F05AF800480047A1410008AFF3008062
:1001C000E82500200648804706480047FEE7FEE78E
:1001D000FEE7FEE7FEE7FEE7FEE7FEE7FEE7FEE7F7
:1001E0007D240008AD01000810B5002200E0521C7B
:1001F000835C8C5CA34201D1002BF8D1D8B2E1B270
:10020000401A10BD2DE9F05F0546002092469B463E
:1002100088460646814640241BE02846414647461C
:10022000224600F042F853465A46C01A914110D374
:1002300011461846224600F029F82D1A67EB0108EE
:100240004F4622460120002100F020F817EB00095C
:100250004E41201EA4F10104DFDC484631462A4607
:100260004346BDE8F09F0000064C074D06E0E068FD
:1002700040F0010394E8070098471034AC42F6D3ED
:10028000FFF798FF88890008A8890008202A04DB66
:10029000203A00FA02F1002070479140C2F1200399
:1002A00020FA03F3194390407047202A04DB203AD8
:1002B00021FA02F00021704721FA02F3D040C2F186
:1002C0002002914008431946704700BFFEE700B581
:1002D000022003F089F800BD10B540210D4803F05D
:1002E000BCFE8023012211460A4803F003FFFFF7FA
:1002F000EEFF8021074803F0B0FEFFF7E8FF402142
:10030000044803F0ACFEFFF7E2FF4021014803F090
:10031000A4FE10BD0004024010B540F6014004F0F8
:1003200089FB4023012211460C4803F0E3FE4023E1
:1003300002220021094803F004FF40F6014004F0C6
:1003400079FB802301221146044803F0D3FE802369
:1003500002220021014803F0F4FE10BD0004024017
:1003600010B540210D4803F078FE8023012211468C
:100370000A4803F0BFFEFFF7AAFF8021074803F0F9
:100380006EFEFFF7A4FF4021044803F068FEFFF76C
:100390009EFF4021014803F060FE10BD00040240B2
:1003A00070B505460024802301220021134803F084
:1003B000A1FE1E2003F018F8002614E040210F488B
:1003C00003F04BFEFFF783FF40210C4803F047FE8C
:1003D0006006040E8021094803F084FE08B1601C09
:1003E000C4B2701CC6B2082EE8DB15B9FFF7B8FF1F
:1003F00001E0FFF771FF204670BD000000040240DD
:1004000070B50446802301221146144803F072FEA1
:100410004021124803F021FEFFF759FF00251AE0A2
:10042000E00920B180210D4803F019FE03E080218E
:100430000A4803F012FE6006040E4021074803F04C
:100440000EFEFFF744FF4021044803F006FEFFF7CD
:100450003EFF681CC5B2082DE2DB70BD00040240FF
:1004600010B58023012211460C4803F043FE802181
:100470000A4803F0F4FD4021084803F0F0FD1E2077
:1004800002F0B2FF8021054803F0E7FDFFF71FFFF0
:100490004021024803F0E1FD10BD000000040240CD
:1004A00010B58023012211460A4803F023FE4021A3
:1004B000084803F0D4FD1E2002F096FF8021054875
:1004C00003F0CBFDFFF703FF8021024803F0C7FDD7
:1004D00010BD00000004024010B50024802301225A
:1004E0000021124803F006FE8021104803F0B7FDFA
:1004F00040210E4803F0B3FDFFF7E9FE09E0601C60
:10050000C4B2FA2C03DDFFF7CBFF012010BDFFF7CB
:10051000DEFE8021054803F0E5FD0028EFD14021F3
:10052000024803F09AFD0020F0E7000000040240BA
:1005300010B520220221054803F079F8012804D1E2
:1005400020220221014803F053F810BD006402404C
:100550007047000010B504464FF4406004F06AFA9A
:100560004FF4406004F066FA41F2041004F062FABD
:100570004FF400720721294803F040FD4FF48062D8
:100580000721264803F03AFD4FF4007301220221AF
:10059000224803F0AFFD4FF48063012202211F487F
:1005A00003F0A8FD4FF40073022200211B4803F062
:1005B000C8FD4FF4806302220021184803F0C1FDFA
:1005C000174806F09FFC2146154806F01DFC002147
:1005D000134806F042FD0021114806F06FFD00218E
:1005E0000F4806F05BFD0E4806F0FAFC08210C48A7
:1005F00006F05CFD04210A4806F037FD0222114690
:10060000252003F0D3FE40F20531054806F0FCFC3E
:100610004FF44171024806F0F7FC10BD00000240A3
:100620000010014010B5012003F0CEFC012813D1C9
:1006300001210A4803F056FD012807D1802108480E
:1006400003F00FFD07A002F031FA02E009A002F06A
:100650002DFA012003F0B2FC10BD000000000240A2
:10066000000C02406B657920707265737365640DD0
:100670000A0000006B65792072656C6561736564C2
:100680000D0A00003EB50020019002900024009069
:100690008DF8000040F6034004F0CCF94FF40063FD
:1006A000002201212B4803F025FD4FF400630222B4
:1006B0000021284803F045FDFFF72EFE4FF40063AC
:1006C00000221146234803F015FD642002F082FE4B
:1006D000042201A948F2401000F062F801A91EA00E
:1006E00002F0E4F902F018FE1FA101A8FFF77CFD5B
:1006F00000282DD1012201A948F2500000F050F845
:100700009DF804101AA002F0D1F9EF221D4948F219
:10071000500000F045F81CA002F0C8F900BF10E03E
:100720001848015D1CA002F0C1F9601C0A2190FB71
:10073000F1F201FB120010B911A002F0B7F9601C30
:10074000C4B2EF2CECDB0EA002F0B0F900203EBDED
:100750000120FCE7000C02404354502049443A4732
:100760005425730D0A0000003131353800000000B7
:1007700044656661756C74205665723A30782578E8
:100780000D0A000090000020436F6E6669672049E3
:100790006E666F3A0D0A00003078253032582C0012
:1007A0002DE9F04105460F461646FFF759FE282071
:1007B000FFF726FEFFF790FE2812FFF721FEFFF756
:1007C0008BFEE8B2FFF71CFEFFF786FEFFF748FE40
:1007D0002920FFF715FEFFF77FFE00240BE0711EB6
:1007E000A14201D0012100E000210846FFF7D8FD19
:1007F0003855601CC4B2B442F1DBFFF751FEBDE8CE
:10080000F081000071B583B0002400268448007890
:10081000401C83490870084600780A2190FBF1F2D9
:1008200001FB120018B17E4800780A287DDA012207
:1008300003A948F24E10FFF7B3FF9DF80C0000F03B
:10084000800068B19DF80C0000F00F00062807DA60
:1008500000200190012201A948F24E1000F0F0F8AA
:100860009DF80C0000F00F0000285ED09DF80C00F1
:1008700000F00F000628D9DA9DF80C0000F00F01F7
:10088000FF208840C0B201906648057D9DF80400B5
:10089000C043C0B240F0C0006249087508460088F5
:1008A0000881084641894182002465E05D48007D59
:1008B0000121A140084000285CD05B4931F81400B8
:1008C000042202A9FFF76CFF564890F8240000F0BC
:1008D0000100A0B19DF808009DF8091000EB01206F
:1008E000504921F814009DF80A009DF80B1000EB08
:1008F000012081B24B480A3020F8141013E09DF813
:1009000008009DF8091000EB0120464921F8140069
:100910009DF80A009DF80B1000EB012081B24148C0
:100920000A3020F814103F4800E052E030F814007C
:1009300000281FDD3B4830F81400B0F5F07F19DACD
:1009400038480A3030F81400002813DD35480A30E2
:1009500030F81400B0F5487F0CDA32480A3030F82D
:10096000140000902F4830F81420234621462FA071
:1009700002F09CF8601CC4B2052C97DB01262948C4
:100980000088B0F5806F04DC26484089B0F5806FA0
:100990001CDD9DF80C0000F00F0001280ADD214845
:1009A00040882049088008468089488100201C49E9
:1009B00008700EE01B4800891A4908800846408AE2
:1009C0004881802003900846057502E00020144904
:1009D00008709DF80C0000F08F00802815D1114898
:1009E000007D00F0800030B10E48007D20F08000D6
:1009F0000C49087509E04FF6FF700A4908804881E4
:100A00000846007D00F0E000087505480078F028F1
:100A100002DD0A2002490870304604B070BD0000B3
:100A200028000020680000207C890008785B25648D
:100A30005D3A25642C795B25645D3A25640D0A00D6
:100A40002DE9F04104460E4617464FF00008FFF727
:100A500007FD2820FFF7D4FCFFF73EFD2012FFF72B
:100A6000CFFCFFF739FDE0B2FFF7CAFCFFF734FD1A
:100A700000250BE0705DFFF7C3FCFFF72DFD8046FE
:100A8000B8F1000F00D003E0681CC5B2BD42F1DB35
:100A900000BFFFF705FD4046BDE8F08100BFFEE75F
:100AA00010B54FF4406003F0C5FF0123022200217E
:100AB0000D4803F01FFB41F20E1003F0BBFF0322B1
:100AC0001146062003F072FC0021084605F08CFF59
:100AD00002220021012003F00BFA012003F066FA44
:100AE000012003F06BFA10BD0000024010B5024671
:100AF00000BF4FF4F0734FF4487413FB04F300206D
:100B000005E0044C54F8224024F81010401C984290
:100B1000F7D310BD200000201CB50FA001F0C6FFC8
:100B200000F074F912A001F0C1FF0020009003460C
:100B300002460146019001F005FD13A001F0B6FF49
:100B40004FF6FF710120FFF7D1FF4FF4005113481A
:100B500003F085FA1CBD00005374617274204E547A
:100B600033353531305F496E69740D0A000000007D
:100B7000537461727420544C495F436F6E666967A9
:100B8000506172616D0D0A004C43445F496E697497
:100B9000204F76657221200D0A000000000C0240F3
:100BA0002DE9FF4F81B0884616461F460E9CB3467E
:100BB0002046E31704EB5373DB1021464FEAE47C35
:100BC00004EB5C7C4FEAEC0CA4EBCC0CBCF1000F0A
:100BD00002D04FF0010C01E04FF0000C63442246BC
:100BE00004EBD27C4FEA6C0C03FB0CF3DBB20093FA
:100BF000A7F12000C7B2002557E00C2C07D107EB66
:100C000047002C4901EB800010F8059014E0102CEF
:100C100005D1294800EB071010F805900CE0182CBE
:100C200007D107EBC700254901EB800010F80590BC
:100C300002E005B0BDE8F08F4FF0000A2FE009F0A8
:100C4000800038B11E48038832464146019800F0C2
:100C5000CBF808E00F9830B91A480388324641466D
:100C6000019800F0C1F84FEA49604FEA1069701C22
:100C700086B2B6F5487F00DBDBE7A6EB0B00A042AF
:100C800009D15E4608F101001FFA80F8B8F5F07F3F
:100C900000DBCEE706E00AF1010000F0FF0ABAF13E
:100CA000080FCCDB00BF681CC5B200988542A4DBEE
:100CB00000BFBEE7CC70000840750008307B00081C
:100CC0001C0000201E0000202DE9FF4F82B00C46C2
:100CD00015469846DDE911A7DDE90F9604F0FF0BF4
:100CE00008EB04001FFA80F809EB05001FFA80F9F1
:100CF00016E0444502DB5C46A81985B24D4500DB91
:100D000014E0CDE9006A3B782A4621460298FFF7B5
:100D100047FF304606EBD07104EB61018CB27F1CBB
:100D200038787E2802DC38782028E2DA00BF06B066
:100D3000BDE8F08F10B540F6044003F07BFE40F6AE
:100D4000034003F077FE40F6064003F073FE4FF4D5
:100D5000406003F06FFE0823002201211E4803F0CB
:100D6000C9F98023002201211C4803F0C3F908239C
:100D7000002201211A4803F0BDF92023002201219D
:100D8000184803F0B7F9082302220021124803F0A3
:100D9000D8F9802302220021104803F0D2F9082359
:100DA000022200210E4803F0CCF920230222002168
:100DB0000C4803F0C6F90821074803F04EF98021DA
:100DC000064803F04AF90821054803F046F92021B6
:100DD000044803F042F910BD00100240000C02402C
:100DE000001802400000024070B5054D55F8205033
:100DF0004FF4F07606FB021625F8163070BD0000A1
:100E00002000002000BFFEE77047000010B540F64C
:100E1000044003F00FFE402301221146FE4803F078
:100E200069F9402302220021FB4803F08AF940F6C9
:100E3000044003F0FFFD042301221146F64803F0AD
:100E400059F9042302220021F34803F07AF940F60D
:100E5000044003F0EFFD102301221146EE4803F099
:100E600049F9102302220021EB4803F06AF940F609
:100E7000034003F0DFFD4FF4805301221146E748A1
:100E800003F038F94FF4805302220021E34803F0C5
:100E900058F940F6034003F0CDFD4FF40053012212
:100EA0001146DE4803F026F94FF4005302220021D8
:100EB000DA4803F046F94FF40051D84803F0CDF872
:100EC00001220421D44803F0CEF801221021D24897
:100ED00003F0C9F801224021CF4803F0C4F8C8202C
:100EE00002F078FA01221103CC4803F0BCF80A2082
:100EF00002F070FA00224FF48051C84803F0B3F8B2
:100F0000322002F067FA01221103C44803F0ABF863
:100F1000962002F05FFA4FF4704001F089FD5520F1
:100F200001F0A8FD4FF2010001F082FDAA2001F0BE
:100F3000A1FD4FF2020001F07BFD522001F09AFD6D
:100F40004FF2030001F074FD082001F093FD4FF211
:100F5000040001F06DFD012001F08CFD4FF43040E4
:100F600001F066FD0D2001F085FD4BF2010001F05E
:100F70005FFD0D2001F07EFD4BF2020001F058FDF7
:100F80000D2001F077FD4FF4364001F051FD342083
:100F900001F070FD4BF2016001F04AFD342001F0D8
:100FA00069FD4BF2026001F043FD342001F062FD67
:100FB0004FF4314001F03CFD0D2001F05BFD4BF2A0
:100FC000011001F035FD0D2001F054FD4BF202102F
:100FD00001F02EFD0D2001F04DFD4FF4374001F0E2
:100FE00027FD342001F046FD4BF2017001F020FD99
:100FF000342001F03FFD4BF2027001F019FD342066
:1010000001F038FD4FF4324001F012FD002001F0F4
:1010100031FD4BF2012001F00BFD002001F02AFD13
:101020004BF2022001F004FD002001F023FD4FF4FB
:10103000384001F0FDFC242001F01CFD4BF60100BE
:1010400001F0F6FC242001F015FD4BF6020001F042
:10105000EFFC242001F00EFD4FF43F4001F0E8FCCE
:10106000012001F007FD4FF4334001F0E1FC0F20B7
:1010700001F000FD4BF2013001F0DAFC0F2001F02D
:10108000F9FC4BF2023001F0D3FC0F2001F0F2FC2E
:101090004FF4394001F0CCFC342001F0EBFC4BF66E
:1010A000011001F0C5FC342001F0E4FC4BF6021005
:1010B00001F0BEFC342001F0DDFC4FF4354001F0BE
:1010C000B7FC082001F0D6FC4BF2015001F0B0FC57
:1010D000082001F0CFFC4BF2025001F0A9FC0820DF
:1010E00001F0C8FC4FF4424001F0A2FC032001F0E3
:1010F000C1FC4FF43A4001F09BFC242001F0BAFC03
:101100004BF6012001F094FC242001F0B3FC4BF6D7
:10111000022001F08DFC242001F0ACFC4FF43C4097
:1011200001F086FC002001F0A5FC4BF6014001F027
:101130007FFC782001F09EFC4BF6024001F078FC29
:10114000002001F097FC4FF43D4001F071FC0020BD
:1011500001F090FC4BF6015001F06AFC782001F0A0
:1011600089FC4BF6025001F063FC002001F082FC88
:101170004FF43E4001F05CFC002001F07BFC4BF69C
:10118000016001F055FC642001F074FC4FF4514003
:1011900001F04EFC002001F06DFC4DF2011001F059
:1011A00047FC332001F066FC4DF2021001F040FCD8
:1011B000002001F05FFC4DF2031001F039FC3420F7
:1011C00001F058FC4DF2041001F032FC002001F057
:1011D00051FC4DF2051001F02BFC3A2001F04AFCC5
:1011E0004DF2061001F024FC002001F043FC4DF20A
:1011F000071001F01DFC4A2001F03CFC4DF20810E4
:1012000001F016FC002001F035FC4DF2091001F050
:101210000FFC5C2004E0000000100240000C0240C3
:1012200001F028FC4DF20A1001F002FC002001F050
:1012300021FC4DF20B1001F0FBFB812001F01AFCA8
:101240004DF20C1001F0F4FB002001F013FC4DF204
:101250000D1001F0EDFBA62001F00CFC4DF20E107C
:1012600001F0E6FB002001F005FC4DF20F1001F04B
:10127000DFFBE52001F0FEFB4DF2101001F0D8FB82
:10128000012001F0F7FB4DF2111001F0D1FB13200A
:1012900001F0F0FB4DF2121001F0CAFB012001F049
:1012A000E9FB4DF2131001F0C3FB542001F0E2FB07
:1012B0004DF2141001F0BCFB012001F0DBFB4DF2FC
:1012C000151001F0B5FB822001F0D4FB4DF2161091
:1012D00001F0AEFB012001F0CDFB4DF2171001F043
:1012E000A7FBCA2001F0C6FB4DF2181001F0A0FBCD
:1012F000022001F0BFFB4DF2191001F099FB002014
:1013000001F0B8FB4DF21A1001F092FB022001F03F
:10131000B1FB4DF21B1001F08BFB012001F0AAFB89
:101320004DF21C1001F084FB022001F0A3FB4DF2F2
:101330001D1001F07DFB342001F09CFB4DF21E10CE
:1013400001F076FB022001F095FB4DF21F1001F039
:101350006FFB672001F08EFB4DF2201001F068FB5F
:10136000022001F087FB4DF2211001F061FB842087
:1013700001F080FB4DF2221001F05AFB022001F037
:1013800079FB4DF2231001F053FBA42001F072FB16
:101390004DF2241001F04CFB022001F06BFB4DF2EA
:1013A000251001F045FBB72001F064FB4DF226103B
:1013B00001F03EFB022001F05DFB4DF2271001F031
:1013C00037FBCF2001F056FB4DF2281001F030FB27
:1013D000022001F04FFB4DF2291001F029FBDE2025
:1013E00001F048FB4DF22A1001F022FB022001F02F
:1013F00041FB4DF22B1001F01BFBF22001F03AFBF8
:101400004DF22C1001F014FB022001F033FB4DF2E1
:101410002D1001F00DFBFE2001F02CFB4DF22E10E3
:1014200001F006FB032001F025FB4DF22F1001F027
:10143000FFFA102001F01EFB4DF2301001F0F8FA17
:10144000032001F017FB4DF2311001F0F1FA3320C7
:1014500001F010FB4DF2321001F0EAFA032001F026
:1014600009FB4DF2331001F0E3FA6D2001F002FBAD
:101470004FF4524001F0DCFA002001F0FBFA4DF28B
:10148000012001F0D5FA332001F0F4FA4DF20220E8
:1014900001F0CEFA002001F0EDFA4DF2032001F048
:1014A000C7FA342001F0E6FA4DF2042001F0C0FA48
:1014B000002001F0DFFA4DF2052001F0B9FA3A20E0
:1014C00001F0D8FA4DF2062001F0B2FA002001F046
:1014D000D1FA4DF2072001F0ABFA4A2001F0CAFA26
:1014E0004DF2082001F0A4FA002001F0C3FA4DF2F9
:1014F000092001F09DFA5C2001F0BCFA4DF20A20AF
:1015000001F096FA002001F0B5FA4DF20B2001F03F
:101510008FFA812001F0AEFA4DF20C2001F088FA2A
:10152000002001F0A7FA4DF20D2001F081FAA6206B
:1015300001F0A0FA4DF20E2001F07AFA002001F03D
:1015400099FA4DF20F2001F073FAE52001F092FABA
:101550004DF2102001F06CFA012001F08BFA4DF2EF
:10156000112001F065FA132001F084FA4DF21220E7
:1015700001F05EFA012001F07DFA4DF2132001F036
:1015800057FA542001F076FA4DF2142001F050FA87
:10159000012001F06FFA4DF2152001F049FA822086
:1015A00001F068FA4DF2162001F042FA012001F034
:1015B00061FA4DF2172001F03BFACA2001F05AFA05
:1015C0004DF2182001F034FA022001F053FA4DF2E6
:1015D000192001F02DFA002001F04CFA4DF21A20EA
:1015E00001F026FA022001F045FA4DF21B2001F02D
:1015F0001FFA012001F03EFA4DF21C2001F018FA0A
:10160000022001F037FA4DF21D2001F011FA3420CA
:1016100001F030FA4DF21E2001F00AFA022001F02A
:1016200029FA4DF21F2001F003FA672001F022FA97
:101630004DF2202001F0FCF9022001F01BFA4DF2DE
:10164000212001F0F5F9842001F014FA4DF2222056
:1016500001F0EEF9022001F00DFA4DF2232001F025
:10166000E7F9A42001F006FA4DF2242001F0E0F998
:10167000022001F0FFF94DF2252001F0D9F9B72041
:1016800001F0F8F94DF2262001F0D2F9022001F024
:10169000F1F94DF2272001F0CBF9CF2001F0EAF962
:1016A0004DF2282001F0C4F9022001F0E3F94DF2D7
:1016B000292001F0BDF9DE2001F0DCF94DF22A20ED
:1016C00001F0B6F9022001F0D5F94DF22B2001F01E
:1016D000AFF9F22001F0CEF94DF22C2001F0A8F97B
:1016E000022001F0C7F94DF22D2001F0A1F9FE20F2
:1016F00001F0C0F94DF22E2001F09AF9032001F01B
:10170000B9F94DF22F2001F093F9102001F0B2F950
:101710004DF2302001F08CF9032001F0ABF94DF2CD
:10172000312001F085F9332001F0A4F94DF2322087
:1017300001F07EF9032001F09DF94DF2332001F014
:1017400077F96D2001F096F94FF4534001F070F9EC
:10175000002001F08FF94DF2013001F069F93320DA
:1017600001F088F94DF2023001F062F9002001F039
:1017700081F94DF2033001F05BF9342001F07AF980
:101780004DF2043001F054F9002001F073F94DF2EC
:10179000053001F04DF93A2001F06CF94DF20630B8
:1017A00001F046F9002001F065F94DF2073001F033
:1017B0003FF94A2001F05EF94DF2083001F038F9A6
:1017C000002001F057F94DF2093001F031F95C20A9
:1017D00001F050F94DF20A3001F02AF9002001F031
:1017E00049F94DF20B3001F023F9812001F042F963
:1017F0004DF20C3001F01CF9002001F03BF94DF2E4
:101800000D3001F015F9A62001F034F94DF20E303B
:1018100001F00EF9002001F02DF94DF20F3001F02A
:1018200007F9E52001F026F94DF2103001F000F93A
:10183000012001F01FF94DF2113001F0F9F81320E9
:1018400001F018F94DF2123001F0F2F8012001F028
:1018500011F94DF2133001F0EBF8542001F00AF9C0
:101860004DF2143001F0E4F8012001F003F94DF2DB
:10187000153001F0DDF8822001F0FCF84DF2163051
:1018800001F0D6F8012001F0F5F84DF2173001F023
:10189000CFF8CA2001F0EEF84DF2183001F0C8F888
:1018A000022001F0E7F84DF2193001F0C1F80020F4
:1018B00001F0E0F84DF21A3001F0BAF8022001F020
:1018C000D9F84DF21B3001F0B3F8012001F0D2F845
:1018D0004DF21C3001F0ACF8022001F0CBF84DF2D3
:1018E0001D3001F0A5F8342001F0C4F84DF21E308F
:1018F00001F09EF8022001F0BDF84DF21F3001F01A
:1019000097F8672001F0B6F84DF2203001F090F81A
:10191000022001F0AFF84DF2213001F089F8842067
:1019200001F0A8F84DF2223001F082F8022001F017
:10193000A1F84DF2233001F07BF8A42001F09AF8D1
:101940004DF2243001F074F8022001F093F84DF2CA
:10195000253001F06DF8B72001F08CF84DF22630FB
:1019600001F066F8022001F085F84DF2273001F011
:101970005FF8CF2001F07EF84DF2283001F058F8E2
:10198000022001F077F84DF2293001F051F8DE2005
:1019900001F070F84DF22A3001F04AF8022001F00F
:1019A00069F84DF22B3001F043F8F22001F062F8B3
:1019B0004DF22C3001F03CF8022001F05BF84DF2C2
:1019C0002D3001F035F8FE2001F054F84DF22E30A4
:1019D00001F02EF8032001F04DF84DF22F3001F008
:1019E00027F8102001F046F84DF2303001F020F8D1
:1019F000032001F03FF84DF2313001F019F83320A7
:101A000001F038F84DF2323001F012F8032001F005
:101A100031F84DF2333001F00BF86D2001F02AF867
:101A20004FF4544001F004F8002001F023F84DF287
:101A3000014000F0FDFF332001F01CF84DF20240A0
:101A400000F0F6FF002001F015F84DF2034000F021
:101A5000EFFF342001F00EF84DF2044000F0E8FFF3
:101A6000002001F007F84DF2054000F0E1FF3A20B8
:101A700001F000F84DF2064000F0DAFF002000F01F
:101A8000F9FF4DF2074000F0D3FF4A2000F0F2FFCB
:101A90004DF2084000F0CCFF002000F0EBFF4DF2CB
:101AA000094000F0C5FF5C2000F0E4FF4DF20A4061
:101AB00000F0BEFF002000F0DDFF4DF20B4000F013
:101AC000B7FF812000F0D6FF4DF20C4000F0B0FFD0
:101AD000002000F0CFFF4DF20D4000F0A9FFA6203E
:101AE00000F0C8FF4DF20E4000F0A2FF002000F011
:101AF000C1FF4DF20F4000F09BFFE52000F0BAFF60
:101B00004DF2104000F094FF012000F0B3FF4DF2C1
:101B1000114000F08DFF132000F0ACFF4DF2124099
:101B200000F086FF012000F0A5FF4DF2134000F009
:101B30007FFF542000F09EFF4DF2144000F078FF2C
:101B4000012000F097FF4DF2154000F071FF822058
:101B500000F090FF4DF2164000F06AFF012000F007
:101B600089FF4DF2174000F063FFCA2000F082FFAA
:101B70004DF2184000F05CFF022000F07BFF4DF2B8
:101B8000194000F055FF002000F074FF4DF21A409C
:101B900000F04EFF022000F06DFF4DF21B4000F000
:101BA00047FF012000F066FF4DF21C4000F040FFAF
:101BB000022000F05FFF4DF21D4000F039FF34209D
:101BC00000F058FF4DF21E4000F032FF022000F0FE
:101BD00051FF4DF21F4000F02BFF672000F04AFF3D
:101BE0004DF2204000F024FF022000F043FF4DF2B0
:101BF000214000F01DFF842000F03CFF4DF2224008
:101C000000F016FF022000F035FF4DF2234000F0F7
:101C10000FFFA42000F02EFF4DF2244000F008FF3B
:101C2000022000F027FF4DF2254000F001FFB72011
:101C300000F020FF4DF2264000F0FAFE022000F0F6
:101C400019FF4DF2274000F0F3FECF2000F012FF05
:101C50004DF2284000F0ECFE022000F00BFF4DF2A8
:101C6000294000F0E5FEDE2000F004FF4DF22A409E
:101C700000F0DEFE022000F0FDFE4DF22B4000F0F1
:101C8000D7FEF22000F0F6FE4DF22C4000F0D0FE20
:101C9000022000F0EFFE4DF22D4000F0C9FEFE20C4
:101CA00000F0E8FE4DF22E4000F0C2FE032000F0EE
:101CB000E1FE4DF22F4000F0BBFE102000F0DAFEF6
:101CC0004DF2304000F0B4FE032000F0D3FE4DF2A0
:101CD000314000F0ADFE332000F0CCFE4DF232403A
:101CE00000F0A6FE032000F0C5FE4DF2334000F0E8
:101CF0009FFE6D2000F0BEFE4FF4554000F098FEB0
:101D0000002000F0B7FE4DF2015000F091FE3320AC
:101D100000F0B0FE4DF2025000F08AFE002000F00C
:101D2000A9FE4DF2035000F083FE332000F0A2FE26
:101D30004DF2045000F07CFE002000F09BFE4DF2BE
:101D4000055000F075FE3A2000F094FE4DF206506A
:101D500000F06EFE002000F08DFE4DF2075000F006
:101D600067FE4A2000F086FE4DF2085000F060FE4B
:101D7000002000F07FFE4DF2095000F059FE5C207B
:101D800000F078FE4DF20A5000F052FE002000F004
:101D900071FE4DF20B5000F04BFE812000F06AFE08
:101DA0004DF20C5000F044FE002000F063FE4DF2B6
:101DB0000D5000F03DFEA62000F05CFE4DF20E50EE
:101DC00000F036FE002000F055FE4DF20F5000F0FE
:101DD0002FFEE52000F04EFE4DF2105000F028FEE0
:101DE000012000F047FE4DF2115000F021FE1320BB
:101DF00000F040FE4DF2125000F01AFE012000F0FB
:101E000039FE4DF2135000F013FE542000F032FE64
:101E10004DF2145000F00CFE012000F02BFE4DF2AC
:101E2000155000F005FE822000F024FE4DF2165001
:101E300000F0FEFD012000F01DFE4DF2175000F0F5
:101E4000F7FDCA2000F016FE4DF2185000F0F0FD2C
:101E5000022000F00FFE4DF2195000F0E9FD0020C5
:101E600000F008FE4DF21A5000F0E2FD022000F0F2
:101E700001FE4DF21B5000F0DBFD012000F0FAFDE9
:101E80004DF21C5000F0D4FD022000F0F3FD4DF2A5
:101E90001D5000F0CDFD342000F0ECFD4DF21E5041
:101EA00000F0C6FD022000F0E5FD4DF21F5000F0ED
:101EB000BFFD672000F0DEFD4DF2205000F0B8FDC0
:101EC000022000F0D7FD4DF2215000F0B1FD84203A
:101ED00000F0D0FD4DF2225000F0AAFD022000F0EB
:101EE000C9FD4DF2235000F0A3FDA42000F0C2FD77
:101EF0004DF2245000F09CFD022000F0BBFD4DF29D
:101F0000255000F095FDB72000F0B4FD4DF22650AD
:101F100000F08EFD022000F0ADFD4DF2275000F0E4
:101F200087FDCF2000F0A6FD4DF2285000F080FD87
:101F3000022000F09FFD4DF2295000F079FDDE20D7
:101F400000F098FD4DF22A5000F072FD022000F0E2
:101F500091FD4DF22B5000F06BFDF22000F08AFD58
:101F60004DF22C5000F064FD022000F083FD4DF294
:101F70002D5000F05DFDFE2000F07CFD4DF22E5056
:101F800000F056FD032000F075FD4DF22F5000F0DB
:101F90004FFD102000F06EFD4DF2305000F048FD76
:101FA000032000F067FD4DF2315000F041FD332079
:101FB00000F060FD4DF2325000F03AFD032000F0D9
:101FC00059FD4DF2335000F033FD6D2000F052FD0D
:101FD0004FF4564000F02CFD002000F04BFD4DF278
:101FE000016000F025FD332000F044FD4DF2026059
:101FF00000F01EFD002000F03DFD4DF2036000F0FA
:1020000017FD342000F036FD4DF2046000F010FDA5
:10201000002000F02FFD4DF2056000F009FD3A2090
:1020200000F028FD4DF2066000F002FD002000F0F7
:1020300021FD4DF2076000F0FBFC4A2000F01AFD84
:102040004DF2086000F0F4FC002000F013FD4DF2AA
:10205000096000F0EDFC5C2000F00CFD4DF20A6020
:1020600000F0E6FC002000F005FD4DF20B6000F0F2
:10207000DFFC812000F0FEFC4DF20C6000F0D8FC8B
:10208000002000F0F7FC4DF20D6000F0D1FCA6201E
:1020900000F0F0FC4DF20E6000F0CAFC002000F0F1
:1020A000E9FC4DF20F6000F0C3FCE52000F0E2FC1B
:1020B0004DF2106000F0BCFC012000F0DBFC4DF2A2
:1020C000116000F0B5FC132000F0D4FC4DF212605A
:1020D00000F0AEFC012000F0CDFC4DF2136000F0EA
:1020E000A7FC542000F0C6FC4DF2146000F0A0FCE8
:1020F000012000F0BFFC4DF2156000F099FC822039
:1021000000F0B8FC4DF2166000F092FC012000F0E7
:10211000B1FC4DF2176000F08BFCCA2000F0AAFC65
:102120004DF2186000F084FC022000F0A3FC4DF298
:10213000196000F07DFC002000F09CFC4DF21A605C
:1021400000F076FC022000F095FC4DF21B6000F0E0
:102150006FFC012000F08EFC4DF21C6000F068FC6A
:10216000022000F087FC4DF21D6000F061FC34207D
:1021700000F080FC4DF21E6000F05AFC022000F0DE
:1021800079FC4DF21F6000F053FC672000F072FCF8
:102190004DF2206000F04CFC022000F06BFC4DF290
:1021A000216000F045FC842000F064FC4DF22260C8
:1021B00000F03EFC022000F05DFC4DF2236000F0D8
:1021C00037FCA42000F056FC4DF2246000F030FCF7
:1021D000022000F04FFC4DF2256000F029FCB720F2
:1021E00000F048FC4DF2266000F022FC022000F0D6
:1021F00041FC4DF2276000F01BFCCF2000F03AFCC0
:102200004DF2286000F014FC022000F033FC4DF287
:10221000296000F00DFCDE2000F02CFC4DF22A605D
:1022200000F006FC022000F025FC4DF22B6000F0CF
:10223000FFFBF22000F01EFC4DF22C6000F0F8FBDA
:10224000022000F017FC4DF22D6000F0F1FBFE20A3
:1022500000F010FC4DF22E6000F0EAFB032000F0CD
:1022600009FC4DF22F6000F0E3FB102000F002FCAF
:102270004DF2306000F0DCFB032000F0FBFB4DF280
:10228000316000F0D5FB332000F0F4FB4DF23260FA
:1022900000F0CEFB032000F0EDFB4DF2336000F0C8
:1022A000C7FB6D2000F0E6FB4FF4704000F0C0FB70
:1022B000552000F0DFFB4FF2010000F0B9FBAA202F
:1022C00000F0D8FB4FF2020000F0B2FB522000F009
:1022D000D1FB4FF2030000F0ABFB082000F0CAFB7B
:1022E0004FF2040000F0A4FB002000F0C3FB4FF409
:1022F000334000F09DFB002000F0BCFB4FF4354064
:1023000000F096FB502000F0B5FB4FF4314000F098
:102310008FFBCC2000F0AEFB4BF2011000F088FBED
:10232000002000F0A7FB4FF4364000F081FB0520B1
:1023300000F0A0FB4FF4374000F07AFB702000F073
:1023400099FB4BF2017000F073FB702000F092FBE0
:102350004FF4384000F06CFB012000F08BFB4BF693
:10236000010000F065FB032000F084FB4BF6020047
:1023700000F05EFB032000F07DFB4BF6030000F055
:1023800057FB032000F076FB4FF43C4000F050FB7D
:10239000022000F06FFB4BF6014000F049FB0020EB
:1023A00000F068FB4BF6024000F042FB002000F01A
:1023B00061FB4FF4494000F03BFBD02000F05AFB9A
:1023C0004CF6011000F034FB022000F053FB4CF6F9
:1023D000021000F02DFB502000F04CFB4CF60310D7
:1023E00000F026FB502000F045FB4CF6041000F0F6
:1023F0001FFB502000F03EFB4FF4585000F018FB3C
:10240000002000F037FB4FF4545000F011FB002087
:1024100000F030FB4FF4685000F00AFB552000F04C
:1024200029FB4FF4885000F003FB782000F0D2FF26
:102430004FF4245000F0FCFA0A2000F0CBFF4FF4D8
:10244000305000F0F5FA10BD10B5002807DA0A0781
:10245000140E054A00F00F031B1FD45403E00A07B3
:10246000130E024A135410BD18ED00E000E400E022
:102470007047704710B500F0C5FF10BD08B52D4876
:10248000006840F470002B4908602B48006840F059
:1024900001002949086028480830006840F08000A1
:1024A0002549083108600020009002E00098401C97
:1024B00000904CF2503100988842F7D31E48083003
:1024C000006840F090001C4908310860002000902E
:1024D00002E00098401C00904CF250310098884275
:1024E000F7D315480830006820F00300124908317E
:1024F000086011480068114908400F490860084603
:10250000006820F48020086000200B490831086032
:1025100000BF09480830006800200028F9D10848A9
:102520000549091D0860002003490C31086004F0CA
:102530002FFB08BD88ED00E000380240FFFFF6FEEB
:10254000103000242DE9F0439BB004460E4690461F
:102550001D46DDE922790EA804F044FC04A804F02D
:1025600017FC41F21A1002F065FA4FF4406002F0D5
:1025700061FA40F6014002F05DFA40F6024002F0D6
:1025800059FA40F6034002F055FA40F6054002F0D1
:1025900051FA40F6064002F04DFA41F658120E216B
:1025A000D34801F02BFD01220921D24801F026FD7C
:1025B0004FF470620E21CF4801F020FDC0220E21A1
:1025C000CD4801F01BFD08220E21CC4801F016FD7C
:1025D0004FF480620E21CA4801F010FD4FF40C62E6
:1025E0000E21C84801F00AFD4FF4A0520921C54848
:1025F00001F004FD41F6581300220221BC4801F00D
:1026000079FD41F6581303220021B94801F099FDE4
:1026100040F6017300220221B64801F06BFD40F63E
:10262000017303220021B34801F08BFDC023002277
:102630000221B14801F05EFDC02303220021AE4813
:1026400001F07FFD082300220221AC4801F052FD79
:10265000082303220021A94801F073FD4FF4806391
:1026600000220221A64801F045FD4FF480630322B9
:102670000021A34801F065FD4FF4E653002202213A
:10268000A04801F037FD4FF4E653032200219D4896
:1026900001F057FD0A2496264FF028080A258C27BA
:1026A0004FF00F099848C06802280BD09648C068C0
:1026B000042807D09448C068082803D09248C0680E
:1026C00010282CD1904B9A685968186802F0E8F9E4
:1026D00008B900BFFEE78C48C068022806D004286D
:1026E00008D008280BD0102813D10DE0002002F0EC
:1026F000FBF913E04FF4803002F0F6F90EE04FF4EE
:10270000003002F0F1F909E04FF4403002F0ECF94A
:1027100004E04FF4803002F0E7F900BF0AE0032242
:102720000221C02002F0BCF908B900BFFEE700207A
:1027300002F0DAF97448C068009073488368426810
:10274000016872A000F0B2F943463246214675A0F6
:102750008DE8A00200F0AAF91C2002F0ABF81C20C2
:1027600002F0BAF808B900BFFEE7002017901890F1
:1027700019904FF080501A90601E80B2ADF83A0068
:10278000681E80B2ADF83800A019401E80B2ADF8C6
:102790003E00E819401E80B2ADF83C00A01900F2DE
:1027A000DF101190E81900F21F301090A01900F509
:1027B000F0704044401E1390E81900F548704844FA
:1027C000401E1290FF201490159016900EA804F051
:1027D00027FAA01980B2ADF8120004F5F070304469
:1027E000401E80B2ADF81000E81980B2ADF81600B6
:1027F00005F548703844401E80B2ADF81400022040
:102800000690FF208DF81C008DF820008DF81F0029
:102810008DF81E0000208DF81D004FF48060099097
:1028200005200A9049484A490860084600680B900C
:1028300040F2C330ADF83200C01EADF830004FF4A6
:102840004870ADF8340004A9424804F055FAA019C4
:1028500080B2ADF8120004F5F0703044401E80B232
:10286000ADF81000E81980B2ADF8160005F5487013
:102870003844401E80B2ADF8140002200690FF20BC
:102880008DF81C008DF820008DF81F008DF81E00BB
:1028900000208DF81D004FF48060099005200A90FB
:1028A0002D482B494860084640680B9040F2C330E1
:1028B000ADF83200C01EADF830004FF44870ADF8EE
:1028C000340004A92348803004F016FA012004F0F3
:1028D0008BF9204804F002FA1E48803004F005FA13
:1028E000012004F06DFA04F091F91BB0BDE8F0830B
:1028F000000002400004024000080240000C0240B8
:102900000014024000180240580000206C63645F0D
:10291000636C6B20256420256420256420256420B9
:1029200000000000544C495F436F6E666967506158
:1029300072616D2025642025642025642025642093
:102940002564202564200D0A00000000000000C05E
:10295000200000200068014000B80BC010B51249EB
:10296000124804F05EFB01280BD1104804F0C0FAB5
:10297000C1B20F4802880088401C0D4B18800D48DA
:1029800081540D49094804F04CFB01280AD107483D
:1029900004F0AEFA00200749054A12888854012045
:1029A0000649087010BD0000050305000010014035
:1029B0002A0000207F010020040304002C000020D6
:1029C00000BFFEE770B5044600220421174801F05D
:1029D0004AFB002526E000220421144801F043FBB5
:1029E00004F0800028B101224021104801F03BFB97
:1029F00004E0002240210D4801F035FB00220421B3
:102A00000A4801F030FB012001F0BCFB0122042147
:102A1000064801F028FB012001F0B4FB6006040E1B
:102A2000681CC5B2082DD6DB70BD00000010024046
:102A300010B50446002210210D4801F014FB0520BA
:102A400001F0A0FB2020FFF7BDFF2012FFF7BAFF27
:102A50000020FFF7B7FFE0B2FFF7B4FF052001F059
:102A600091FB01221021024801F0FDFA10BD000087
:102A70000010024010B50446002210210A4801F05F
:102A8000F2FA052001F07EFB4020FFF79BFF204675
:102A9000FFF798FF052001F075FB01221021024885
:102AA00001F0E1FA10BD0000001002400FB4054B28
:102AB00010B503A9044A029800F018F810BC5DF89C
:102AC00014FB0000ED3F00085400002002E008C89D
:102AD000121F08C1002AFAD170477047002001E098
:102AE00001C1121F002AFBD1704700002DE9FF4FE2
:102AF0008DB00F460546002606E025280BD0DDE9FF
:102B00000F1290476D1C761C28780028F5D111B063
:102B10003046BDE8F08F0024A246A1460122E949D3
:102B200000E0044315F8013F203B02FA03F008429D
:102B3000F7D128782A2810D06FF02F022878A0F13A
:102B40003001092914D80AEB8A0102EB410144F053
:102B5000020400EB010A6D1CF0E701CF5FEA000AF6
:102B600003D544F40054CAF1000A44F002046D1C79
:102B700028782E2817D115F8010F44F004042A28CC
:102B80000ED06FF02F022878A0F1300109290AD861
:102B900009EB890102EB410100EB01096D1CF2E731
:102BA00057F8049B6D1C28786C280FD006DC4C2845
:102BB00017D068280DD06A2814D104E0742810D0EA
:102BC0007A280FD10DE044F400140AE044F4801494
:102BD00001E044F440146978814202D104F5801484
:102BE0006D1C6D1C28786E281ED00CDC632830D03C
:102BF00004DC00288BD0582811D19FE0642867D0CE
:102C000069280CD164E073282DD004DC6F2872D0C1
:102C1000702804D194E075286ED078286DD0DDE955
:102C20000F129047761C4BE1C4F30250022806D0E5
:102C3000032809D0042801CF09D0066040E101CF64
:102C4000F117C0E900613BE101CF068038E1067071
:102C500036E117F8040B8DF8000000208DF8010014
:102C6000EB46012003E057F804BB4FF0FF3061074B
:102C70004FF0000102D40DE008F1010188464945FA
:102C80000FDA8045F8DB1BF808100029F4D108E0C2
:102C900008F1010188468142FADB1BF8081000297F
:102CA000F6D1DDE90F23AAEB08008146214600F0AA
:102CB00031F9304400EB080604E0DDE90F121BF89F
:102CC000010B9047B8F10108F7D221464846F2E0DF
:102CD0000A21C4F302524FF0000B0891022A04D0DB
:102CE00001CFC117032A09D00AE0FF1D27F007070B
:102CF000F7E8020108E02CE01EE01FE000B2C11777
:102D0000042A01D140B2C117021E71F1000206DA95
:102D10000023D0EB030063EB01012D2202E022052A
:102D200004D52B228DF82420012203E0E20701D0F4
:102D30002022F7E7904653E00A210BE0102109E03A
:102D400010214FF0000B44F004044FF008090891E3
:102D500003E008214FF0000B0891C4F30252022A4D
:102D600004D001CF0021032A06D006E0FF1D27F082
:102D70000707F7E8020103E080B2042A00D1C0B2DD
:102D80004FF0000822072BD52A78702A07D0DDF8EB
:102D900020C08CF0100C5CEA0B0C05D00EE0402239
:102DA0008DF82420012208E050EA010306D03023E8
:102DB0008DF824308DF8252002229046089B83F060
:102DC000080353EA0B030BD150EA010201D1620759
:102DD00006D530228DF824204FF00108A9F1010911
:102DE0002A78582A04D038A20B9208AA0A920BE03B
:102DF0003AA2F9E75B46089AFDF704FA0B9B9B5C45
:102E00000A9A521E0A92137050EA0102F2D10A98ED
:102E1000ADEB000000F1200B600702D524F48034F4
:102E200001E04FF00109D94502DDA9EB0B0000E0FC
:102E3000002000EB0B0141440890AAEB010AE003DB
:102E400006D4DDE90F232146504600F063F806441E
:102E50004FF0000908E009A911F80900DDE90F1297
:102E6000904709F10109761CC145F4DBE0030CD55C
:102E7000DDE90F232146504600F04CF8064404E0FB
:102E8000DDE90F1230209047761C0899481E089003
:102E90000029F5DC08E00A980A990078491C0A9193
:102EA000DDE90F129047761CBBF10001ABF1010B7D
:102EB000F1DC21465046DDE90F2300F019F8064405
:102EC0006D1C21E6092801003031323334353637A4
:102ED0003839616263646566000000003031323366
:102EE0003435363738394142434445460000000006
:102EF0002DE9F041044600251E461746880404D4F7
:102F000005E039462020B0476D1C641EF9D52846DF
:102F1000BDE8F0812DE9F041044600251E469046AB
:102F2000C80301D5302700E02027880404D505E038
:102F300041463846B0476D1C641EF9D52846BDE8A9
:102F4000F08100002DE9F05F4CA0FFF7AFFD514884
:102F50004068C0F303664F488088C0F3C0394D48CD
:102F60008088C0F3802A022E11D1B9F1010F0AD155
:102F7000BAF1010F03D148A0FFF798FD11E04DA071
:102F8000FFF794FD0DE052A0FFF790FD09E0012E40
:102F900003D156A0FFF78AFD03E016B95AA0FFF748
:102FA00085FD3C484068C0F30255022D03D15DA069
:102FB000FFF77CFD0AE0032D03D15FA0FFF776FD4C
:102FC00004E0042D02D161A0FFF770FD6448006A9F
:102FD000401C87024FF4007802F0F6F88346594609
:102FE00060A0FFF763FD414665A0FFF75FFD39462E
:102FF0006AA0FFF75BFD5A48C07E10B16EA0FFF7D4
:1030000055FD574890F82F0010B175A0FFF74EFD01
:103010005348048B21467DA0FFF748FD04F00400CF
:1030200028B104F0100010B181A0FFF73FFD04F0BB
:10303000200010B187A0FFF739FD04F0400010B167
:103040008AA0FFF733FD04F0800010B190A0FFF7D5
:103050002DFD04F4807010B195A0FFF727FD04F456
:10306000007010B19CA0FFF721FD04F4806010B146
:10307000A0A0FFF71BFDBDE8F09F00000D0A204354
:1030800061726420696E666F726D6174696F6E3A09
:1030900000000000300000200D0A2323204361724D
:1030A000642076657273696F6E20342E78782023E1
:1030B000230000000D0A23232043617264207665FB
:1030C0007273696F6E20332E307820232300000046
:1030D0000D0A232320436172642076657273696F41
:1030E0006E20322E30302023230000000D0A2323CF
:1030F00020436172642076657273696F6E20312E91
:1031000031302023230000000D0A23232043617265
:10311000642076657273696F6E20312E30782023BB
:10312000230000000D0A23232053445343206361EE
:1031300072642023230000000D0A232320534448F7
:103140004320636172642023230000000D0A2323BF
:1031500020534458432063617264202323000000FD
:10316000A01100200D0A23232044657669636520A1
:1031700073697A652069732025644B4220232300FC
:103180000D0A232320426C6F636B2073697A6520DC
:103190006973202564422023230000000D0A2323A5
:1031A00020426C6F636B20636F756E7420697320AF
:1031B00025642023230000000D0A23232050617280
:1031C0007469616C20626C6F636B7320666F722030
:1031D0007265616420616C6C6F77656420232300E5
:1031E0000D0A2323205061727469616C20626C6F38
:1031F000636B7320666F7220777269746520616CEF
:103200006C6F776564202323000000000D0A2323E0
:103210002043617264436F6D6D616E64436C6173D2
:103220007365732069733A202578202323000000FA
:103230000D0A232320426C6F636B206F70657261EF
:1032400074696F6E20737570706F7274656420237B
:10325000230000000D0A232320457261736520734B
:103260007570706F72746564202323000D0A232328
:103270002057726974652070726F74656374696F2A
:103280006E20737570706F72746564202323000064
:103290000D0A2323204C6F636B20756E6C6F636B7C
:1032A00020737570706F72746564202323000000B2
:1032B0000D0A2323204170706C69636174696F6E1D
:1032C00020737065636966696320737570706F72CF
:1032D00074656420232300000D0A232320492F4F07
:1032E000206D6F646520737570706F7274656420F3
:1032F000232300000D0A2323205377697463682079
:1033000066756E6374696F6E20737570706F72741A
:1033100065642023230000002DE9F04100240025EE
:1033200000BF09E00F49681C085C495D40EA0120C4
:10333000204484B2A81CC5B2EC2DF3D3E043401C5A
:1033400084B22612E7B2214607A0FFF7AFFB314651
:1033500009A0FFF7ABFB39460BA0FFF7A7FBBDE8C1
:10336000F08100008C88000863686B73756D3A30DB
:103370007825582C0D0A000063686B73756D483A08
:10338000307825582C0D0A0063686B73756D4C3AC4
:10339000307825582C0D0A0038B51D240B480090B4
:1033A00002E00098401E0090802003F0C9FA10B996
:1033B00000980028F5D1009810B91324204638BD94
:1033C000034803F0B7FA2046F9E70000A0860100A1
:1033D000FF07C0000349086000BF024909680029CF
:1033E000FBD170471400002005E000BF00BF00BF04
:1033F00000BF00BF00BF011EA0F1010290B2F4D1D6
:10340000704700000448006820B103480068401E6F
:1034100001490860704700001400002010B501EB5E
:103420004102D30000F11002D25822F0010301EB57
:103430004102D40000F11002135110BD10B501EB90
:103440004102D30000F11002D25842F0010301EB17
:103450004102D40000F11002135110BD30B51346E3
:1034600001EB4104E50000F11004625922F06062B2
:1034700042EA436201EB4104E50000F110046251AD
:1034800030BD10B501EB4102D30000F11002D2585B
:1034900022F0010301EB4102D40000F110021351AC
:1034A000002301EB4102D40000F11002135101EBA3
:1034B0004102D40000F11402135101EB4102D40087
:1034C00000F11802135101EB4102D40000F11C027B
:1034D000135101EB4102D40000F12002135101EB22
:1034E0004102D40000F12402135104290CDA01EB4B
:1034F00041025300C1F3400203EB82033D229A4094
:1035000083681A4382600DE00A1FD1B201EB4102C9
:103510005300C1F3400203EB82033D229A40C3688B
:103520001A43C26010BD10B504290CDA01EB410347
:103530005C00C1F3400304EB830302FA03F38468E5
:10354000234383600DE00B1FD9B201EB41035C0004
:10355000C1F3400304EB830302FA03F3C46823437B
:10356000C36010BD10B5034604290FDA01EB41001A
:103570004400C1F3400004EB800402FA04F01C682C
:10358000204008B1012010BD0020FCE7081FC1B297
:1035900001EB41004400C1F3400004EB800402FA57
:1035A00004F05C68204008B10120ECE70020EAE765
:1035B00030B572B901EB4103DC0000F110031B5977
:1035C00023F0200401EB4103DD0000F110035C5106
:1035D0000DE001EB4103DC0000F110031B5943F047
:1035E000200401EB4103DD0000F110035C5130BD0C
:1035F00010B504290CDA01EB41035C00C1F3400370
:1036000004EB830302FA03F38468234383600DE031
:103610000B1FD9B201EB41035C00C1F3400304EB83
:10362000830302FA03F3C4682343C36010BDF0B5FB
:103630000346002500260C46042979DA082A34D0EE
:1036400004DC012A07D0042A70D119E0102A41D0E5
:10365000202A6BD153E001EB41004700C1F3400049
:1036600007EB800702FA07F01F6800EA070601EB84
:103670004100C70003F12400C05900F0800556E066
:1036800001EB41004700C1F3400007EB800702FA5D
:1036900007F01F6800EA070601EB4100C70003F1CD
:1036A0001000C05900F0020541E001EB4100470065
:1036B000C1F3400007EB800702FA07F01F6800EA39
:1036C000070601EB4100C70003F11000C05900F0EC
:1036D00004052CE001EB41004700C1F3400007EB7B
:1036E000800702FA07F01F6800EA070601EB4100B5
:1036F000C70003F11000C05900F0080517E001EB06
:1037000041004700C1F3400007EB800702FA07F0D1
:103710001F6800EA070601EB4100C70003F1100033
:10372000C05900F0100502E002E0FFE700BF7AE0B8
:10373000201FC4B2082A34D004DC012A07D0042A8E
:103740006FD119E0102A41D0202A6AD153E004EB4E
:1037500044004700C4F3400007EB800702FA07F07B
:103760005F6800EA070601EB4100C70003F124008F
:10377000C05900F0800555E004EB44004700C4F355
:10378000400007EB800702FA07F05F6800EA0706CF
:1037900001EB4100C70003F11000C05900F0020521
:1037A00040E004EB44004700C4F3400007EB80070F
:1037B00002FA07F05F6800EA070601EB4100C70064
:1037C00003F11000C05900F004052BE004EB4400A5
:1037D0004700C4F3400007EB800702FA07F05F6878
:1037E00000EA070601EB4100C70003F11000C059D1
:1037F00000F0080516E004EB44004700C4F3400065
:1038000007EB800702FA07F05F6800EA070601EBA2
:103810004100C70003F11000C05900F0100501E09D
:10382000FFE700BF00BF16B10DB10120F0BD0020C1
:10383000FCE7000070B501EB4104E50000F1240451
:103840006459156A45F004052C4301EB4105EE006F
:1038500000F12405AC5101EB4104E60000F118042D
:103860001568A55101EB4104E60000F11C04D56880
:10387000A55101EB4104E60000F11404D56AA551FD
:1038800001EB4104E50000F110046359414C234071
:10389000156954682C43156B2C43956A2C43956924
:1038A0002C43D5692C43234301EB4104E50000F18F
:1038B00010046351946874B901EB4104E50000F110
:1038C0001004645944F4007501EB4104E60000F172
:1038D0001004A5511FE09468012C0ED101EB4104A6
:1038E000E50000F11004645924F4007501EB410473
:1038F000E60000F11004A5510DE001EB4104E500E4
:1039000000F11004645944F4004501EB4104E60061
:1039100000F11004A551546974B901EB4104E500AC
:1039200000F11004645944F4806501EB4104E600A1
:1039300000F11004A5510DE001EB4104E50000F198
:103940001004645924F4806501EB4104E60000F1A1
:103950001004A551546A74B901EB4104E50000F16B
:103960001004645944F4807501EB4104E60000F151
:103970001004A5510DE001EB4104E50000F1100435
:10398000645924F4807501EB4104E60000F1100451
:10399000A55170BD3F871CFE30B58DB004460D4665
:1039A000012203212748FFF7BEFD042203212548F9
:1039B000FFF7B9FD082203212248FFF7B4FD1022CA
:1039C00003212048FFF7AFFD202203211D48FFF708
:1039D000AAFD03211B48FFF721FD03211948FFF72A
:1039E00050FD19480090039400200A900B9001208C
:1039F0000290002005904FF48050019080000490C8
:103A00004FF440300C904FF4001007908000069067
:103A100003200890012009906A4603210948FFF716
:103A200009FF012203210748FFF7C2FD04220321F9
:103A30000448FFF713FD03210248FFF7FFFC0DB018
:103A400030BD000000640240802C014030B58DB0D4
:103A500004460D46012203212748FFF764FD042296
:103A600003212548FFF75FFD082203212248FFF7C5
:103A70005AFD102203212048FFF755FD2022032183
:103A80001D48FFF750FD03211B48FFF7C7FC03212A
:103A90001948FFF7F6FC19480090039440200A905B
:103AA00000200B9001200290002005904FF48050E0
:103AB0000190800004904FF440300C904FF40010BF
:103AC00007908000069001200990032008906A4624
:103AD00003210948FFF7AEFE012203210648FFF744
:103AE00067FD042203210448FFF7B8FC03210248C4
:103AF000FFF7A4FC0DB030BD00640240802C0140F3
:103B000002460023012A03D0022A01D0032A04D14D
:103B10005001A0F1C040436C01E00548036803EA8E
:103B20000100884201D0002070470120FCE700001E
:103B3000580100A0D0E902211143426811430268F4
:103B400041EA4221014A116070470000500100A083
:103B500070B50568042D3AD1D0E908653543C669CA
:103B600035438669354346693543066945EA462546
:103B7000C6683543866845EA063546683543384E9B
:103B80003560856AAD696D1E866A7669761E45EA7E
:103B90000616856A2D696D1E46EA0526856AED685A
:103BA0006D1E46EA0536856A2D896D1E46EA054674
:103BB000856AAD886D1E46EA0556856A2D786D1EAC
:103BC00046EA05654FF02046C6F8485147E0244DC7
:103BD0002D6825F4F841D0E9026535434668354340
:103BE0002943D0E908653543C669354386693543BD
:103BF00046693543066945EA06044FF02045C5F895
:103C00004011C5F84441D5F84851164E05EA060260
:103C1000856AED686D1E2E03856AAD886D1E46EAC5
:103C20000556856A2D896D1E46EA05452A43856A33
:103C3000AD696D1E866A7669761E45EA0616856A46
:103C40002D696D1E46EA0526856A2D786D1E46EAA9
:103C500005634FF02045C5F84821C5F84C3170BDCB
:103C6000400100A0FF0F00FF074A126843F6FE73F1
:103C700022EA03011A4602EA40020A434FF02043B7
:103C8000C3F8542170470000540100A0F0B597B06C
:103C9000064600274FF6FF744FF4606000F0CAFE3E
:103CA00040F6014000F0C6FE40F6024000F0C2FEC1
:103CB00040F6034000F0BEFE40F6044000F0BAFEBD
:103CC00040F6054000F0B6FE40F6064000F0B2FEB9
:103CD00040F6074000F0AEFE0D220C217F4800F0B8
:103CE0008DF90D23012202217C4800F003FA0D23F7
:103CF00002220021794800F024FA4CF203720C21D0
:103D0000774800F07BF94CF20373012202217448DA
:103D100000F0F0F94CF2037302220021704800F029
:103D200010FA4FF683720C216E4800F067F94FF6D7
:103D30008373012202216B4800F0DCF94FF6837394
:103D400002220021674800F0FCF94FF63F020C21E7
:103D5000654800F053F94FF63F0301220221624803
:103D600000F0C8F94FF63F03022200215E4800F040
:103D7000E8F948F237120C215C4800F03FF948F2AC
:103D8000371301220221594800F0B4F948F23713E1
:103D900002220021554800F0D4F9042E01D110254B
:103DA00000E0082502200B9008200A9005200990C9
:103DB00007200890022007900320069005900C969B
:103DC000012015900820149010201390402012908C
:103DD00080001190002010904FF400600F9001209F
:103DE0000E9040030D9005A816900CA8FFF7B0FEAA
:103DF00001200490039500200290019000E0641ED1
:103E000020213046FFF77CFE08B1002CF7D114B911
:103E1000002017B0F0BD01A8FFF78CFE0A20FFF7C5
:103E2000D9FA0220049003950020029001904FF6E9
:103E3000FF7400E0641E20213046FFF761FE08B1E8
:103E4000002CF7D10CB90020E3E701A8FFF772FEC0
:103E5000032004900395E0200290002001904FF68B
:103E6000FF7400E0641E20213046FFF749FE08B1D0
:103E7000002CF7D10CB90020CBE701A8FFF75AFEC0
:103E80004FF40877042004900395002002900197D6
:103E90004FF6FF7400E0641E20213046FFF730FE2D
:103EA00008B1002CF7D10CB90020B2E701A8FFF748
:103EB00041FE40F2F920FFF7D7FE4FF6FF7400E015
:103EC000641E20213046FFF71BFE08B1002CF7D1FD
:103ED0000CB900209DE701209BE70000000802408C
:103EE000000C024000100240001402400018024082
:103EF00010B52D4B1B6883432B4C2360231D1B687F
:103F00008343241D2360231D1B688343241D2360DA
:103F1000231D1B688343241D236011B101290ED189
:103F200005E0214B1B6803431F4C236008E01E4B38
:103F30001B1D1B6803431C4C241D236000E000BFB5
:103F400000BF32B1012A11D0022A1CD0032A27D186
:103F500027E0154B08331B680343134C08342360D8
:103F6000231D1B688343241D23601BE00E4B083375
:103F70001B6883430C4C08342360231D1B680343D8
:103F8000241D23600EE0084B08331B680343064CD6
:103F900008342360231D1B680343241D236001E0B4
:103FA00000BF00BF00BF10BD003C014002490968CE
:103FB0000143014A11607047003C0140014908601B
:103FC00070470000143C014001460748006800EAC1
:103FD000010205481438006800EA010312B10BB170
:103FE000012070470020FCE7143C014070B50446F6
:103FF0000D46E0B203F042F8204670BDF0B503462E
:104000001C6A5D6A00200DE00126864016403EB124
:1040100087000F26BE40B443860001FA06F63443FB
:10402000461CB0B20828EFD3082011E001268640D4
:1040300016405EB1A0F10806B7000F26BE40B5439A
:10404000A0F10806B60001FA06F63543461CB0B2E8
:104050001028EBD31C625D62F0BD81627047816104
:104060007047C16270470AB1816100E081627047A8
:1040700010B54FF4F8520C211848FFF7BFFF042287
:104080000C211748FFF7BAFF4FF470630122022199
:10409000124800F02FF84FF47063012200210F48FE
:1040A00000F04FF84FF48053002202210B4800F03B
:1040B00021F84FF4805301220021084800F041F814
:1040C000042301220221064800F014F804230122EF
:1040D0000021034800F035F810BD00000008024040
:1040E000000C024002461069084008B101207047E8
:1040F0000020FCE7F0B504460D4616462168E2684C
:10410000002019E0012787401F409FB14FEA400C73
:10411000032707FA0CF7B943470005FA07F73943B5
:104120004FEA400C032707FA0CF7BA43470006FA98
:1041300007F73A43471CB8B21028E3D32160E26086
:10414000F0BDF0B50C461546012C03D146681E4360
:10415000466002E046689E434660826800210DE0AA
:1041600001268E401E403EB14F000326BE40B243A2
:104170004E0005FA06F632434E1CB1B21029EFD3B9
:104180008260F0BD05E000BF00BF00BF00BF00BF00
:1041900000BF011EA0F1010290B2F4D170470000EF
:1041A0008AB000244FF4A06000F062F902F0F4FC41
:1041B0004FF4E130FCF7CEF9FCF7BCFDFCF770FCE6
:1041C00061A0FEF773FC02F041F90420FFF75EFDE9
:1041D000FCF7A2FC5F4800895F4908805F480089BE
:1041E0005F4908805D4801890120FCF77FFC5DA0E4
:1041F000012118225023CDE90032CDE902104FF4FD
:10420000F07332221E210120FCF75EFD5AA001212D
:1042100018226E23CDE90032CDE902104FF4F0737D
:1042200050221E210120FCF74FFDFCF72BFA89E0FC
:104230000020FCF7E7FA00247EE05348017D0120CE
:10424000A0400140002970D005A830F824004FF6A6
:10425000FF7188420CD14C4830F8140005A921F8B0
:10426000240049480A3030F8140001EB84014880EA
:10427000454830F8140005A921F8240042480A30C6
:1042800030F8140001EB840148803F480A3030F8D0
:1042900014200A3830F814103CA0FEF707FC3A4806
:1042A0000A3030F814200A3830F814102A480388ED
:1042B0000120FCF799FD34480A3030F814200A3800
:1042C00030F81400401E81B2234803880120FCF717
:1042D0008BFD2D480A3030F81400401E82B22A4867
:1042E00030F814101C4803880120FCF77DFD264897
:1042F0000A3030F814200A3830F81400401C81B21B
:10430000154803880120FCF76FFD1F480A3030F87C
:104310001400401C82B21C4830F814100E48038868
:104320000120FCF761FD05E0FFE74FF6FF7005A9EE
:1043300021F82400601CC4B2052CFFF67EAF0120DA
:10434000FFF748F874E700007374617274210D0A76
:1043500000000000000000201C0000200A000020D7
:104360001E00002068747470733A2F2F6C636B66A4
:10437000622E636F6D000000746F75636820746552
:1043800073742E2E2E2E00006800002074705F645F
:1043900065762E785B745D3A25642074705F646581
:1043A000762E795B745D3A25640D0A002DE9F041A3
:1043B00003460D46164600240027A0462A480068FA
:1043C00000F4E060B0F5E06F03D100BF4FF00408E7
:1043D00030E02548006800F4E060B0F5C06F03D11C
:1043E00001274FF0030825E01F48006800F4E06053
:1043F000B0F5A06F02D10227B8461BE01A4800684A
:1044000000F4E060B0F5806F03D103274FF001089E
:1044100010E01548006800F4E060B0F5407F03D17B
:1044200004274FF0000805E04FF4A06000F020F8EA
:104430000227B846C7F1040005FA00F4C8F10401E8
:104440000F20C8403040044324010848C45403F0FE
:104450001F01012088405911890001F1E021C1F8B4
:104460000001BDE8F08100000CED00E000E400E098
:1044700002490143024A1160704700000000FA053A
:104480000CED00E02DE9F04105461D270024002633
:104490001A48046801E01948046804F0450000283F
:1044A000F9D004F0010030B11127012002F042FAE6
:1044B0003846BDE8F08104F0040028B11327042039
:1044C00002F038FA3846F4E702F09EF9A84202D02A
:1044D00008273846EDE70A4802F02CFA002002F0DF
:1044E00057FA06460748304010B91D273846E0E71E
:1044F000304600F009F807463846DAE7342C014028
:10450000FF07C00008E0F9FD01461C2001F0004251
:104510000AB100204EE001F080420AB1012049E0DA
:1045200001F000520AB1022044E001F080520AB1C9
:1045300003203FE001F000620AB104203AE001F0FC
:1045400080620AB1052035E001F080720AB10620D0
:1045500030E001F400020AB107202BE001F48002F0
:104560000AB1082026E001F400120AB1092021E076
:1045700001F480120AB10A201CE001F400220AB101
:104580000B2017E001F480320AB10C2012E001F494
:1045900000420AB10D200DE001F480420AB10E2064
:1045A00008E001F400520AB10F2003E001F0080214
:1045B00002B110207047000070B51D25002410487E
:1045C000046801E00E48046804F045000028F9D0B2
:1045D00004F0010028B11125012002F0ABF92846B2
:1045E00070BD04F0040028B11325042002F0A2F9E4
:1045F0002846F5E7034802F09DF92846F0E7000059
:10460000342C0140FF07C00070B51D2500240B4865
:10461000046801E00948046804F045000028F9D066
:1046200004F0040028B11325042002F083F9284681
:1046300070BD034802F07EF92846F9E7342C0140AA
:10464000FF07C0002DE9F04107460E464FF01D0858
:10465000002500242348056801E02248056805F08C
:1046600045000028F9D005F0010038B14FF01108DD
:10467000012002F05FF94046BDE8F08105F004003A
:1046800030B14FF01308042002F054F94046F3E72C
:1046900002F0BAF8B84203D04FF008084046EBE702
:1046A000114802F047F9002002F072F9044604F4C0
:1046B000604018B9200C30804046DDE704F400402B
:1046C00010B14FF007080AE004F4804010B14FF039
:1046D000080804E004F4005008B14FF00B0840460D
:1046E000CAE70000342C0140FF07C00038B51C2584
:1046F0000024134800901348046804E0114804683B
:104700000098401E009004F0450010B90098002861
:10471000F4D104F0040008B9009828B91325042046
:1047200002F008F9284638BD04F0400028B11D25E4
:10473000402002F0FFF82846F5E72846F3E700009E
:10474000A0860100342C01402DE9F04F8CB00646C4
:1047500000200A903EA090E8004CC068CDE905BE5C
:10476000CDF810A007900FF2EC0ADAE9000ACDE9C3
:10477000020A0FF2E00ADAE9000ACDE9000A384835
:104780000068C0F381000B900B9820B1012804D081
:10479000022828D103E0334927E0334925E0304897
:1047A000001F006800F03F072D48001F0068C0F39D
:1047B000881C2B48001F0068C0F30140401C4FEAD2
:1047C00040092748001F006800F48008B8F5800FF2
:1047D00001D1254B00E0234BB3FBF7F000FB0CF0BD
:1047E000B0FBF9F101E01F4900BF00BF1C480068A1
:1047F000C0F3031404A8055D21FA05F21848006807
:10480000C0F3822402A8055D22FA05F0099014483D
:104810000068C0F342341DF8045022FA05F00890F5
:1048200036B1012E06D0022E06D0032E0AD106E0A4
:104830000A9108E00A9206E009980A9003E00898B5
:104840000A9000E000BF00BF0A980CB0BDE8F08FEE
:104850000000000000000000010203040607080930
:10486000083802400024F40040787D0110B540F67D
:10487000024000F0DFF840F6034000F0DBF841F2C0
:104880000B1000F0D7F840F6164000F0D3F810BD3A
:104890000146074A02EB9110D0F8000801F01F030F
:1048A00001229A40104008B1012070470020FCE727
:1048B00000300240074A02EB9011D1F8001800F0D6
:1048C0001F0301229A401143024B03EB9012C2F8DE
:1048D0000018704700300240F0B50646002400275B
:1048E00000251C2E7DD007DCB6B3102E10D0182E5C
:1048F00067D01A2E76D176E0B6F5E05F19D0B6F51E
:10490000E85F4CD0A6F5405010380028F2D134E0D2
:1049100004E01120FFF7BCFF0546641C1DB94FF6EB
:10492000FF708442F5D11120FFF7B2FF00B10127DB
:104930007AE005E041F60140FFF7AAFF0546641C56
:104940001DB96FF070408442F4D141F60140FFF789
:104950009FFF00B1012767E0FFE704E00120FFF7B8
:1049600097FF0546641C15B9B4F5A06FF6D1012078
:10497000FFF78EFF00B1012756E005E043F211007A
:10498000FFF786FF0546641C15B929488442F5D116
:1049900043F21100FFF77CFF00B1012744E005E07E
:1049A00041F60150FFF774FF0546641C15B9204815
:1049B0008442F5D141F60150FFF76AFF00B10127AB
:1049C00032E004E01920FFF763FF0546641C15B9C7
:1049D00017488442F6D11920FFF75AFF00B101278A
:1049E00022E010E01FE004E01B20FFF751FF054626
:1049F000641C15B90E488442F6D11B20FFF748FF0E
:104A000000B1012710E004E01D20FFF741FF05463B
:104A1000641C15B906488442F6D11D20FFF738FF03
:104A200000B1012700E000BF00BF3846F0BD000024
:104A3000FFFF0F00074A02EB9011D1F8001800F0B9
:104A40001F0301229A401143024B03EB9012C2F85C
:104A50000018704700300240074A02EB9011D1F86D
:104A6000001800F01F0301229A409143024B03EB10
:104A70009012C2F80018704700300240074A02EB5B
:104A80009011D1F8001800F01F0301229A40114341
:104A9000024B03EB9012C2F800187047003002403E
:104AA00010B50346322B19D3B3F5FA7F16D8022975
:104AB00005D0042903D0062901D008290ED1022AE5
:104AC0000CD3072A0AD898010124C4EB510440EA08
:104AD000044040EA0270034C206001E0002010BD59
:104AE0000120FCE788380240044A116821F4403173
:104AF00041EA0002014B1A60704700008C38024006
:104B00002DE9F84F0646894614461D274FF0000848
:104B10004FF0000A4FF0000B3546002000901EB900
:104B200019273846BDE8F88F1D207249087000200B
:104B3000714908607149086000221146104601F071
:104B40008FFE0021084601F0AFFE01F0DFFE01F00C
:104B5000C9FE002001F01CFF00F0007010B1062714
:104B60003846DFE766480078022802D104024FEA9F
:104B70005929601E00EA040A002C1BDDB4F5006F01
:104B800018DCBAF1000F15D1204600F0F3FD834682
:104B900040222146102001F03DFE002001F016FFCA
:104BA00001F054FE1020FFF76DFC07461D2F04D0C6
:104BB0003846B7E719273846B4E70020514908605E
:104BC0004E4804605A4601684FF0FF3001F048FE3D
:104BD0000221002001F068FE01F0A2FE40224946B9
:104BE000112001F017FE002001F0F0FE01F02EFE72
:104BF0001120FFF747FC07461D2F01D0384691E7EB
:104C000041480068012851D111E04FF4004001F003
:104C100097FE60B14FF0000805E001F03FFE45F857
:104C2000280008F10108B8F1080FF6D3203540F24A
:104C30002A6001F085FE0028E7D0022001F080FE06
:104C400028B11227022001F075FE38466AE70820D5
:104C500001F076FE28B11427082001F06BFE3846DB
:104C600060E7202001F06CFE28B11627202001F01B
:104C700061FE384656E74FF4007001F061FE30B136
:104C800017274FF4007001F055FE38464AE703E05D
:104C900001F004FE28602D1D4FF4001001F050FEBD
:104CA0000028F5D1194801F045FE21E016480068BA
:104CB000E8B940F2293001F057FE01F01DFE21460F
:104CC0003046FEF769FE1248009006E00098401E4C
:104CD0000090009808B91C2024E7202203210D48E9
:104CE000FEF740FC20B900980028EFD100E019271A
:104CF000384617E7480000204C0000204000002004
:104D000038000020440000203C000020FF07C000C5
:104D1000A0860100006402402DE9F04F85B0814675
:104D20008A4614461D2500200490002683460390E1
:104D30004F468046029001900090B9F1000F04D1D7
:104D40001925284605B0BDE8F08F1D20B049087030
:104D50000020B0490860B0490860002211461046A2
:104D600001F07EFD0021084601F09EFD01F0CEFD20
:104D700001F0B8FD002001F00BFE00F0007010B152
:104D800006252846DEE7A5480078022802D104025D
:104D90004FEA5A2A601E00EA040B002C1BDDB4F512
:104DA000006F18DCBBF1000F15D1204600F0E2FCCB
:104DB000039040222146102001F02CFD002001F03C
:104DC00005FE01F043FD1020FFF75CFB05461D2D9D
:104DD00004D02846B6E719252846B3E7904800884E
:104DE000010440220D2001F015FD002001F0EEFD30
:104DF00001F02CFD0D20FFF745FB05461D2D01D0D0
:104E000028469FE7002001F0C3FD019085480090EF
:104E10001AE00098401E009081480088010440225A
:104E20000D2001F0F7FC002001F0D0FD01F00EFD97
:104E30000D20FFF727FB05461D2D01D0284681E7F1
:104E4000002001F0A5FD0190019800F4807010B9D8
:104E500000980028DDD1009808B91C2072E7402294
:104E60005146182001F0D6FC002001F0AFFD01F002
:104E7000EDFC1820FFF706FB05461D2D01D0284646
:104E800060E700206849086063480460039A01688D
:104E90004FF0FF3001F0E4FC0021084601F004FD72
:104EA00001F03EFD61480068012865D134E04FF40F
:104EB000804001F045FD78B357480068A0EB08003A
:104EC00020281DD254480078A0EB080000F0030011
:104ED00008B1012000E000204F490968A1EB08015A
:104EE00000EB91000290002606E0386801F0EAFC31
:104EF0003F1D08F10408761C029886420CD2F4E7A4
:104F0000002604E057F8260001F0DCFC761C082E91
:104F1000F8D3203708F1200840F21A6001F010FDA4
:104F20000028C4D0022001F00BFD28B11225022078
:104F300001F000FD284605E7082001F001FD28B139
:104F40001425082001F0F6FC2846FBE6102001F0AD
:104F5000F7FC28B11525102001F0ECFC2846F1E6FD
:104F60004FF4007001F0ECFCA8B317254FF400706B
:104F700001F0E0FC2846E5E62C48006860BB40F202
:104F80001A3001F0F1FC21464846FEF75FFD01F0C2
:104F9000B3FC2448009006E00098401E0090009862
:104FA00008B91C20CEE6202203212148FEF7DAFAB8
:104FB00010B900980028EFD100BF1648006818B952
:104FC000134800781D28F8D0114800781D2807D014
:104FD0000F480078B6E603E0FFE719252846B1E65A
:104FE000144801F0A7FC04A800F044FB054603E0C8
:104FF00004A800F03FFB05461D2D07D19DF81000C9
:105000000728F5D09DF810000628F1D0284699E62B
:10501000480000204C000020400000203800002004
:105020003A000020A0860100440000203C0000203F
:1050300000640240FF07C00070B504461D252248E9
:105040000078052802D11B25284670BD1E4800782F
:1050500038B11D480078012803D01B480078022889
:1050600030D1B4F5805F02D11B252846EDE7B4F5B9
:10507000006F12D14FF4802000F028F805461D2D56
:1050800020D1022300221146104601F099FB204650
:1050900001F088FB01F05EFC14E094B94FF480301D
:1050A00000F014F805461D2D0CD1022300221146F4
:1050B000104601F085FB204601F074FB01F04AFC2C
:1050C00000E019252846C0E73800002070B50546E5
:1050D0001D24002001F05CFC00F0007010B10624DB
:1050E000204670BD36493748008801F001F9044672
:1050F0001D2C01D02046F4E7B5F5803F2CD1304877
:105100004068284028B32F480088010440223720F7
:1051100001F080FB002001F059FC01F097FB3720E3
:10512000FFF7B0F904461D2C01D02046D9E74022F4
:105130000021062001F06EFB002001F047FC01F089
:1051400085FB0620FFF79EF904461D2C02D0204661
:10515000C7E71A242046C4E7B5F5802F2CD118489C
:105160004068284028B317480088010440223720AF
:1051700001F050FB002001F029FC01F067FB372013
:10518000FFF780F904461D2C01D02046A9E74022F4
:105190000221062001F03EFB002001F017FC01F087
:1051A00055FB0620FFF76EF904461D2C02D0204661
:1051B00097E71A24204694E71924204691E7000037
:1051C000300000203A00002070B5002100230024A8
:1051D00000200022244D2D781DB1234D2D78012D66
:1051E0002DD1224DAD88C5F3072101F0030542EA18
:1051F00085221E4D297942EA8102AD68290E42EAD4
:1052000091121A4DAD68C5F307418D076B0F174D0D
:105210002D89C5F3072143EAD113144D6D68C5F3F9
:10522000074101F00F049D1C012606FA05F5561CE6
:1052300005FB06F00125A5406843800A13E00A4DEE
:105240002D78022D0FD1094D29798D06AA0A074D17
:10525000AD68290E42EA0122044DAD68C5F307414D
:105260000A43551C680270BD3800002080110020E0
:1052700030B501461D20002209B9192030BDA84BC8
:105280001B7881F83830A74B1B88A1F84430A64B17
:105290001B681A0E0A70A44B1B68C3F30742130263
:1052A0004B80A14B1B88C3F307224B8813434B80D1
:1052B0009D4B1A7813064B609B4B5B681A0E4B682C
:1052C00043EA02434B60984B5B68C3F307424B6869
:1052D00043EA02234B60944B9B88C3F307224B683D
:1052E00013434B60904B1A790A729B681A0E4A72EC
:1052F0008D4B9B68C3F307421306CB608A4B1B8917
:10530000C3F30722CB6843EA0243CB60864B1A7A89
:10531000CB681343CB60844BDB681A0ECB68134316
:10532000CB60814BDB68C3F3074202F00F034FF6FB
:10533000FF7404EA03230B827B4B9B89C3F3072290
:105340000B8A13430B82784B1A7B53088B74774B71
:105350001B681A0E93090B75744B1B68C3F3074245
:105360004A75724B1B88C3F307228A756F4B1A78F4
:10537000CA755B681A0E14010C836C4B5B68C3F32F
:1053800007420B8B43EA12140C8302F00F048C7655
:10539000664B9B88C3F30722D409CC76C2F38014F2
:1053A0000C77C2F340144C77C2F300148C775C4B3B
:1053B0001B781BB15A4B1B78012B44D193071C0D52
:1053C0000C625A4B1A790B6A43EA82040C62574BFF
:1053D0009B681A0E0B6A43EA92140C62C2F3C20471
:1053E00024235C5402F0070425235C544F4B9B6834
:1053F000C3F30742540926235C54C2F382042723D3
:105400005C5493075C0F28235C54484B1B89C3F3FF
:10541000072228235B5C43EAD21428235C548C7E49
:105420000123A3400B640B6A5B1CCB632824645CE0
:10543000A41C0125A540CB6B6B43CB63D1E90F3492
:105440006343CB631DE0364B1B78022B19D1374BDE
:105450001A7993069C0A0C62344B9B681A0E0B6AED
:1054600043EA02240C62314B9B68C3F307420B6A88
:1054700013430B624FF400730B640B6A5B1CDB0479
:10548000CB63C2F3801429235C5493065C0E2A2359
:105490005C54264B1A7A2A235B5C43EAD2142A23F3
:1054A0005C5402F07F042B235C54204BDB681A0E03
:1054B000D4092C235C54C2F382042D235C5493073B
:1054C0001C0F2E235C54194BDB68C3F307422E23B9
:1054D0005B5C43EA92142E235C54C2F340142F23E6
:1054E0005C54124B9B89C3F30722D40930235C54CC
:1054F000C2F3801431235C54C2F3401432235C5451
:10550000C2F3001433235C54C2F3810481F83440A5
:10551000064B1A7B540881F8354000BFAEE6000008
:10552000380000203A000020901100208011002057
:1055300038B51D240120009001F01EFA10B91A247C
:10554000204638BD3D480078032824D0C0220021E1
:10555000022001F05FF9002001F038FA01F076F93D
:10556000FFF72AF804461D2C01D02046E9E7002069
:1055700001F00EFA32490860012001F009FA3049C1
:105580004860022001F004FA2D498860032001F0F0
:10559000FFF92B49C8602948007858B1274800789E
:1055A000012807D025480078022803D02348007836
:1055B000042812D140220021032001F02BF9002001
:1055C00001F004FA01F042F969460320FFF73AF8C6
:1055D00004461D2C01D02046B3E718480078032864
:1055E0002AD0BDF8000017490880BDF8000001046A
:1055F000C022092001F00EF9002001F0E7F901F0C6
:1056000025F9FEF7D9FF04461D2C01D0204698E766
:10561000002001F0BDF90C490860012001F0B8F943
:1056200009494860022001F0B3F907498860032066
:1056300001F0AEF90449C860204682E73800002036
:10564000901100203A0000208011002070B504461F
:105650001D2521044022072001F0DCF8002001F084
:10566000B5F901F0F3F80720FEF70CFF05462846D0
:1056700070BD00007CB504461D25002001900090FF
:1056800026480088010440220D2001F0C3F80020C4
:1056900001F09CF901F0DAF821480068019002E07D
:1056A0001F4800680190019800F045000028F7D0DD
:1056B000019800F0010028B11125012001F03AF90C
:1056C00028467CBD019800F0040028B11325042071
:1056D00001F030F92846F4E701F096F801900198BE
:1056E0000D2802D008252846EBE70E4801F022F9E4
:1056F000002001F04DF900900098C0F34320207085
:1057000009490098084010B91D252846D9E7009896
:10571000FEF7FAFE05462846D3E700003A000020CF
:10572000342C0140FF07C00008E0F9FD70B50446C5
:105730001D2514B91925284670BD0D48008801049F
:1057400040220D2001F066F8002001F03FF901F041
:105750007DF80D20FEF796FE05461D2D01D028464A
:10576000EAE7002001F014F920602846E4E7000091
:105770003A0000200146002202E04910501CC2B24B
:105780000129FAD1F02000EA021070472DE9FC4708
:1057900005460F461D244FF000080026002001900A
:1057A000009081468246464840684FEA10694FEAB9
:1057B000091A43484068C0F307494AEA191A0AF02F
:1057C000200018B91B242046BDE8FC873D4800682E
:1057D000C6B23C480068C00F06EB0026B61C3A482B
:1057E000B0FBF6F00190002001F0D2F800F000705C
:1057F00010B106242046E7E734480078022801D19A
:105800006D0A7F0A3148007838B1304800780128A5
:1058100003D02E480078022823D140222946202098
:1058200000F0F8FF002001F0D1F801F00FF820207F
:10583000FEF728FE04461D2C01D02046C4E7402276
:105840003946212000F0E6FF002001F0BFF800F00B
:10585000FDFF2120FEF716FE04461D2C01D0204638
:10586000B2E740220021262000F0D4FF002001F002
:10587000ADF800F0EBFF2620FEF704FE04461D2CD9
:1058800001D02046A0E74FF0000801E008F1010830
:1058900001988045FAD36846FFF7ECFE044603E022
:1058A0006846FFF7E7FE04461D2C07D19DF800006F
:1058B0000728F5D09DF800000628F1D0204683E7A0
:1058C00080110020042C014040900200380000208C
:1058D00010B51D24FEF7CAFFFEF7CAFB00F0F8FF63
:1058E00000F070FC04461D2C01D0204610BDFFF7CF
:1058F0001FFE04461D2C01D02046F7E7022300229C
:105900001146104600F05CFF002000F04BFF01F054
:1059100021F82046EAE7000038B51D240020009059
:10592000FFF7D6FF04461D2C03D11648FFF7A0FC55
:1059300004461D2C05D11349B1F84400FFF786FE3B
:1059400004466846FFF7F2FE0446009800F0007037
:1059500020B10DA0FDF7AAF800BFFEE71D2C08D16D
:10596000009800F0007020B94FF40060FFF764FB6E
:1059700004461D2C03D1012000F008FF04462046F8
:1059800038BD0000A01100200D0A20746865206356
:10599000617264206973206C6F636B656421000021
:1059A0002DE9FC4705461D24002001900026804675
:1059B00081468246009000276F484068060E3701F6
:1059C0006D484068C0F3074647EA161707F08000A5
:1059D00018B91B242046BDE8FC87684845EA000842
:1059E000DFF89C9100221146104600F039FF00219B
:1059F000084600F059FF00F089FF00F073FF4022D5
:105A00000821102000F006FF002000F0DFFF00F06A
:105A10001DFF1020FEF736FD04461D2C01D0204648
:105A2000D9E758480088010440220D2000F0F2FE1A
:105A3000002000F0CBFF00F009FF0D20FEF722FD53
:105A400004461D2C01D02046C5E7002000F0A0FF31
:105A500082464D4800901AE00098401E0090494848
:105A60000088010440220D2000F0D4FE002000F048
:105A7000ADFF00F0EBFE0D20FEF704FD04461D2CEB
:105A800001D02046A7E7002000F082FF82460AF4FA
:105A9000807010B900980028DED1009808B91C2049
:105AA00099E7402200212A2000F0B4FE002000F0F7
:105AB0008DFF00F0CBFE2A20FEF7E4FC04461D2CEF
:105AC00001D0204687E7002000F062FF82463022A6
:105AD00008214FF0FF3000F0C3FE0021084600F01F
